{
  "_format": "hh-sol-artifact-1",
  "contractName": "AffiliateRouter",
  "sourceName": "contracts/AffiliateRouter.sol",
  "abi": [
    {
      "inputs": [
        {
          "internalType": "address",
          "name": "_swapManager",
          "type": "address"
        }
      ],
      "stateMutability": "nonpayable",
      "type": "constructor"
    },
    {
      "inputs": [],
      "name": "FailedCall",
      "type": "error"
    },
    {
      "inputs": [
        {
          "internalType": "uint256",
          "name": "balance",
          "type": "uint256"
        },
        {
          "internalType": "uint256",
          "name": "needed",
          "type": "uint256"
        }
      ],
      "name": "InsufficientBalance",
      "type": "error"
    },
    {
      "inputs": [
        {
          "internalType": "address",
          "name": "owner",
          "type": "address"
        }
      ],
      "name": "OwnableInvalidOwner",
      "type": "error"
    },
    {
      "inputs": [
        {
          "internalType": "address",
          "name": "account",
          "type": "address"
        }
      ],
      "name": "OwnableUnauthorizedAccount",
      "type": "error"
    },
    {
      "inputs": [],
      "name": "ReentrancyGuardReentrantCall",
      "type": "error"
    },
    {
      "inputs": [
        {
          "internalType": "address",
          "name": "token",
          "type": "address"
        }
      ],
      "name": "SafeERC20FailedOperation",
      "type": "error"
    },
    {
      "anonymous": false,
      "inputs": [
        {
          "indexed": true,
          "internalType": "address",
          "name": "referrer",
          "type": "address"
        },
        {
          "indexed": false,
          "internalType": "uint256",
          "name": "feeBasisPoints",
          "type": "uint256"
        }
      ],
      "name": "DefaultReferrerUpdated",
      "type": "event"
    },
    {
      "anonymous": false,
      "inputs": [
        {
          "indexed": true,
          "internalType": "address",
          "name": "user",
          "type": "address"
        },
        {
          "indexed": false,
          "internalType": "uint256",
          "name": "newFeeBasisPoints",
          "type": "uint256"
        }
      ],
      "name": "FeeBasisPointsUpdated",
      "type": "event"
    },
    {
      "anonymous": false,
      "inputs": [
        {
          "indexed": false,
          "internalType": "uint16",
          "name": "newMaxPromoBps",
          "type": "uint16"
        }
      ],
      "name": "MaxPromoBpsUpdated",
      "type": "event"
    },
    {
      "anonymous": false,
      "inputs": [
        {
          "indexed": true,
          "internalType": "address",
          "name": "previousOwner",
          "type": "address"
        },
        {
          "indexed": true,
          "internalType": "address",
          "name": "newOwner",
          "type": "address"
        }
      ],
      "name": "OwnershipTransferred",
      "type": "event"
    },
    {
      "anonymous": false,
      "inputs": [
        {
          "indexed": true,
          "internalType": "address",
          "name": "user",
          "type": "address"
        },
        {
          "indexed": true,
          "internalType": "address",
          "name": "referrer",
          "type": "address"
        },
        {
          "indexed": false,
          "internalType": "uint8",
          "name": "remaining",
          "type": "uint8"
        }
      ],
      "name": "PromoConsumed",
      "type": "event"
    },
    {
      "anonymous": false,
      "inputs": [
        {
          "indexed": true,
          "internalType": "address",
          "name": "user",
          "type": "address"
        },
        {
          "indexed": true,
          "internalType": "address",
          "name": "referrer",
          "type": "address"
        },
        {
          "indexed": false,
          "internalType": "uint256",
          "name": "boundAt",
          "type": "uint256"
        },
        {
          "indexed": false,
          "internalType": "uint16",
          "name": "promoBps",
          "type": "uint16"
        }
      ],
      "name": "ReferralBound",
      "type": "event"
    },
    {
      "anonymous": false,
      "inputs": [
        {
          "indexed": true,
          "internalType": "address",
          "name": "payer",
          "type": "address"
        },
        {
          "indexed": false,
          "internalType": "uint256",
          "name": "amount",
          "type": "uint256"
        }
      ],
      "name": "ReferralCreationFeePaid",
      "type": "event"
    },
    {
      "anonymous": false,
      "inputs": [
        {
          "indexed": false,
          "internalType": "uint256",
          "name": "oldFee",
          "type": "uint256"
        },
        {
          "indexed": false,
          "internalType": "uint256",
          "name": "newFee",
          "type": "uint256"
        }
      ],
      "name": "ReferralCreationFeeUpdated",
      "type": "event"
    },
    {
      "anonymous": false,
      "inputs": [
        {
          "indexed": false,
          "internalType": "address",
          "name": "user",
          "type": "address"
        },
        {
          "indexed": false,
          "internalType": "address",
          "name": "referrer",
          "type": "address"
        },
        {
          "indexed": false,
          "internalType": "address",
          "name": "token",
          "type": "address"
        },
        {
          "indexed": false,
          "internalType": "uint256",
          "name": "amount",
          "type": "uint256"
        }
      ],
      "name": "ReferralFeeAdded",
      "type": "event"
    },
    {
      "anonymous": false,
      "inputs": [
        {
          "indexed": false,
          "internalType": "address",
          "name": "referrer",
          "type": "address"
        },
        {
          "indexed": false,
          "internalType": "address",
          "name": "token",
          "type": "address"
        },
        {
          "indexed": false,
          "internalType": "uint256",
          "name": "amount",
          "type": "uint256"
        }
      ],
      "name": "ReferralFeeAmountUpdated",
      "type": "event"
    },
    {
      "anonymous": false,
      "inputs": [
        {
          "indexed": true,
          "internalType": "address",
          "name": "newRecipient",
          "type": "address"
        }
      ],
      "name": "ReferralFeeRecipientUpdated",
      "type": "event"
    },
    {
      "anonymous": false,
      "inputs": [
        {
          "indexed": false,
          "internalType": "address",
          "name": "referrer",
          "type": "address"
        },
        {
          "indexed": false,
          "internalType": "address",
          "name": "token",
          "type": "address"
        },
        {
          "indexed": false,
          "internalType": "uint256",
          "name": "amount",
          "type": "uint256"
        }
      ],
      "name": "ReferralFeeWithdrawn",
      "type": "event"
    },
    {
      "anonymous": false,
      "inputs": [
        {
          "indexed": true,
          "internalType": "address",
          "name": "user",
          "type": "address"
        },
        {
          "indexed": true,
          "internalType": "address",
          "name": "referrer",
          "type": "address"
        }
      ],
      "name": "ReferralRegistered",
      "type": "event"
    },
    {
      "anonymous": false,
      "inputs": [
        {
          "indexed": true,
          "internalType": "address",
          "name": "user",
          "type": "address"
        },
        {
          "indexed": true,
          "internalType": "address",
          "name": "referrer",
          "type": "address"
        },
        {
          "indexed": false,
          "internalType": "uint256",
          "name": "amountIn",
          "type": "uint256"
        },
        {
          "indexed": false,
          "internalType": "uint256",
          "name": "feeAmount",
          "type": "uint256"
        }
      ],
      "name": "SwapExecuted",
      "type": "event"
    },
    {
      "inputs": [],
      "name": "DEFAULT_TAIL_BPS",
      "outputs": [
        {
          "internalType": "uint16",
          "name": "",
          "type": "uint16"
        }
      ],
      "stateMutability": "view",
      "type": "function"
    },
    {
      "inputs": [],
      "name": "MAX_REFERRAL_CREATION_FEE",
      "outputs": [
        {
          "internalType": "uint256",
          "name": "",
          "type": "uint256"
        }
      ],
      "stateMutability": "view",
      "type": "function"
    },
    {
      "inputs": [],
      "name": "PROMO_CAP_MAX_BPS",
      "outputs": [
        {
          "internalType": "uint16",
          "name": "",
          "type": "uint16"
        }
      ],
      "stateMutability": "view",
      "type": "function"
    },
    {
      "inputs": [],
      "name": "PROMO_CAP_MIN_BPS",
      "outputs": [
        {
          "internalType": "uint16",
          "name": "",
          "type": "uint16"
        }
      ],
      "stateMutability": "view",
      "type": "function"
    },
    {
      "inputs": [],
      "name": "PROMO_SWAP_COUNT",
      "outputs": [
        {
          "internalType": "uint8",
          "name": "",
          "type": "uint8"
        }
      ],
      "stateMutability": "view",
      "type": "function"
    },
    {
      "inputs": [],
      "name": "defaultFeeBasisPoints",
      "outputs": [
        {
          "internalType": "uint256",
          "name": "",
          "type": "uint256"
        }
      ],
      "stateMutability": "view",
      "type": "function"
    },
    {
      "inputs": [],
      "name": "defaultReferrer",
      "outputs": [
        {
          "internalType": "address",
          "name": "",
          "type": "address"
        }
      ],
      "stateMutability": "view",
      "type": "function"
    },
    {
      "inputs": [],
      "name": "defaultReferrerBasisPoints",
      "outputs": [
        {
          "internalType": "uint256",
          "name": "",
          "type": "uint256"
        }
      ],
      "stateMutability": "view",
      "type": "function"
    },
    {
      "inputs": [
        {
          "internalType": "bytes",
          "name": "routeBytes",
          "type": "bytes"
        },
        {
          "internalType": "address",
          "name": "referrerCode",
          "type": "address"
        }
      ],
      "name": "executeSwap",
      "outputs": [],
      "stateMutability": "payable",
      "type": "function"
    },
    {
      "inputs": [
        {
          "internalType": "address",
          "name": "user",
          "type": "address"
        }
      ],
      "name": "getFeeBasisPoints",
      "outputs": [
        {
          "internalType": "uint256",
          "name": "feeBasisPoints",
          "type": "uint256"
        }
      ],
      "stateMutability": "view",
      "type": "function"
    },
    {
      "inputs": [
        {
          "internalType": "address",
          "name": "referrer",
          "type": "address"
        },
        {
          "internalType": "address[]",
          "name": "tokens",
          "type": "address[]"
        }
      ],
      "name": "getReferrerEarnings",
      "outputs": [
        {
          "internalType": "uint256[]",
          "name": "earnings",
          "type": "uint256[]"
        }
      ],
      "stateMutability": "view",
      "type": "function"
    },
    {
      "inputs": [
        {
          "internalType": "address",
          "name": "account",
          "type": "address"
        }
      ],
      "name": "hasPaidReferralCreationFee",
      "outputs": [
        {
          "internalType": "bool",
          "name": "",
          "type": "bool"
        }
      ],
      "stateMutability": "view",
      "type": "function"
    },
    {
      "inputs": [],
      "name": "maxPromoBps",
      "outputs": [
        {
          "internalType": "uint16",
          "name": "",
          "type": "uint16"
        }
      ],
      "stateMutability": "view",
      "type": "function"
    },
    {
      "inputs": [],
      "name": "owner",
      "outputs": [
        {
          "internalType": "address",
          "name": "",
          "type": "address"
        }
      ],
      "stateMutability": "view",
      "type": "function"
    },
    {
      "inputs": [],
      "name": "payReferralCreationFee",
      "outputs": [],
      "stateMutability": "payable",
      "type": "function"
    },
    {
      "inputs": [
        {
          "internalType": "address",
          "name": "",
          "type": "address"
        }
      ],
      "name": "referral",
      "outputs": [
        {
          "internalType": "address",
          "name": "firstReferrer",
          "type": "address"
        },
        {
          "internalType": "uint64",
          "name": "boundAt",
          "type": "uint64"
        },
        {
          "internalType": "uint16",
          "name": "promoBps",
          "type": "uint16"
        },
        {
          "internalType": "uint8",
          "name": "promoRemaining",
          "type": "uint8"
        }
      ],
      "stateMutability": "view",
      "type": "function"
    },
    {
      "inputs": [],
      "name": "referralCreationFee",
      "outputs": [
        {
          "internalType": "uint256",
          "name": "",
          "type": "uint256"
        }
      ],
      "stateMutability": "view",
      "type": "function"
    },
    {
      "inputs": [
        {
          "internalType": "address",
          "name": "",
          "type": "address"
        }
      ],
      "name": "referralCreationFeePaid",
      "outputs": [
        {
          "internalType": "bool",
          "name": "",
          "type": "bool"
        }
      ],
      "stateMutability": "view",
      "type": "function"
    },
    {
      "inputs": [],
      "name": "referralFeeRecipient",
      "outputs": [
        {
          "internalType": "address payable",
          "name": "",
          "type": "address"
        }
      ],
      "stateMutability": "view",
      "type": "function"
    },
    {
      "inputs": [
        {
          "internalType": "address",
          "name": "",
          "type": "address"
        },
        {
          "internalType": "address",
          "name": "",
          "type": "address"
        }
      ],
      "name": "referrerEarnings",
      "outputs": [
        {
          "internalType": "uint256",
          "name": "",
          "type": "uint256"
        }
      ],
      "stateMutability": "view",
      "type": "function"
    },
    {
      "inputs": [],
      "name": "renounceOwnership",
      "outputs": [],
      "stateMutability": "nonpayable",
      "type": "function"
    },
    {
      "inputs": [
        {
          "internalType": "address",
          "name": "_defaultReferrer",
          "type": "address"
        }
      ],
      "name": "setDefaultReferrer",
      "outputs": [],
      "stateMutability": "nonpayable",
      "type": "function"
    },
    {
      "inputs": [
        {
          "internalType": "uint16",
          "name": "newMaxPromoBps",
          "type": "uint16"
        }
      ],
      "name": "setMaxPromoBps",
      "outputs": [],
      "stateMutability": "nonpayable",
      "type": "function"
    },
    {
      "inputs": [
        {
          "internalType": "uint256",
          "name": "newFee",
          "type": "uint256"
        }
      ],
      "name": "setReferralCreationFee",
      "outputs": [],
      "stateMutability": "nonpayable",
      "type": "function"
    },
    {
      "inputs": [
        {
          "internalType": "address payable",
          "name": "newRecipient",
          "type": "address"
        }
      ],
      "name": "setReferralFeeRecipient",
      "outputs": [],
      "stateMutability": "nonpayable",
      "type": "function"
    },
    {
      "inputs": [],
      "name": "swapManager",
      "outputs": [
        {
          "internalType": "contract ISwapManager",
          "name": "",
          "type": "address"
        }
      ],
      "stateMutability": "view",
      "type": "function"
    },
    {
      "inputs": [],
      "name": "tailBps",
      "outputs": [
        {
          "internalType": "uint16",
          "name": "",
          "type": "uint16"
        }
      ],
      "stateMutability": "view",
      "type": "function"
    },
    {
      "inputs": [],
      "name": "totalBasisPoints",
      "outputs": [
        {
          "internalType": "uint256",
          "name": "",
          "type": "uint256"
        }
      ],
      "stateMutability": "view",
      "type": "function"
    },
    {
      "inputs": [
        {
          "internalType": "address",
          "name": "newOwner",
          "type": "address"
        }
      ],
      "name": "transferOwnership",
      "outputs": [],
      "stateMutability": "nonpayable",
      "type": "function"
    },
    {
      "inputs": [
        {
          "internalType": "uint256",
          "name": "newFeeBasisPoints",
          "type": "uint256"
        }
      ],
      "name": "updateFeeBasisPoints",
      "outputs": [],
      "stateMutability": "nonpayable",
      "type": "function"
    },
    {
      "inputs": [
        {
          "internalType": "address",
          "name": "",
          "type": "address"
        }
      ],
      "name": "userFeeBasisPoints",
      "outputs": [
        {
          "internalType": "uint256",
          "name": "",
          "type": "uint256"
        }
      ],
      "stateMutability": "view",
      "type": "function"
    },
    {
      "inputs": [
        {
          "internalType": "address",
          "name": "",
          "type": "address"
        }
      ],
      "name": "userReferrer",
      "outputs": [
        {
          "internalType": "address",
          "name": "",
          "type": "address"
        }
      ],
      "stateMutability": "view",
      "type": "function"
    },
    {
      "inputs": [
        {
          "internalType": "address[]",
          "name": "tokens",
          "type": "address[]"
        }
      ],
      "name": "withdrawReferralEarnings",
      "outputs": [],
      "stateMutability": "nonpayable",
      "type": "function"
    },
    {
      "stateMutability": "payable",
      "type": "receive"
    }
  ],
  "bytecode": "0x60803461017457601f61280238819003918201601f19168301916001600160401b038311848410176101795780849260209460405283398101031261017457516001600160a01b0381169081900361017457331561015e5760008054336001600160a01b03198216811783556040519290916001600160a01b0316907f8be0079c531659141344cd1fd0a4f28419497f9722a3daafe3b4186f6b6457e09080a360018055811561011c5750600780546001600160a01b031990811692909217905560646002819055612710600355600880549092169091556009556000600b55600d80546001600160b01b0319163361ffff60a01b191617604b60a21b1761ffff60b01b1916601960b21b17905560405161267290816101908239f35b62461bcd60e51b815260206004820152601460248201527f496e76616c69642073776170206d616e616765720000000000000000000000006044820152606490fd5b631e4fbdf760e01b600052600060045260246000fd5b600080fd5b634e487b7160e01b600052604160045260246000fdfe608080604052600436101561001d575b50361561001b57600080fd5b005b600090813560e01c90816301b5e6f414611b755750806302c311141461084d578063070951cc146118575780633442c62214610b475780633c163ce014610c195780633d9f3e0d14610bfb5780633f108e4614610b4c57806341b6538f14610b475780634febe72114610b2257806351cc0fe214610b0457806352ee4f6414610ae657806357802c7d146109dc578063663d27d0146109b7578063678cbbb5146108a95780636822b01d1461088c57806369859fd81461084d578063709d039d14610824578063715018a6146107ca5780637247959a1461075d5780637c3fcc381461071c5780638da5cb5b146106f557806391b33125146106cc5780639213cd8d14610677578063a3e9aadc1461064b578063a591ccb9146105af578063b0802092146104de578063b6f87d6c146104c0578063bb809d0714610487578063c210137d146102d1578063d94e2e80146102a8578063dcf6e81914610235578063e31e7d03146102195763f2fde38b0361000f5734610216576020366003190112610216576101aa611b98565b6101b2612426565b6001600160a01b031680156102025781546001600160a01b03198116821783556001600160a01b03167f8be0079c531659141344cd1fd0a4f28419497f9722a3daafe3b4186f6b6457e08380a380f35b631e4fbdf760e01b82526004829052602482fd5b80fd5b5034610216578060031936011261021657602060405160038152f35b50346102165760203660031901126102165761024f611b98565b610257612426565b60018060a01b0316806bffffffffffffffffffffffff60a01b60085416176008557f6b9c1abeba6ba37f9deb72f5b7573ab7c05f13e0b4f1b0dfd999b0f06e14cbd66020600954604051908152a280f35b5034610216578060031936011261021657600d546040516001600160a01b039091168152602090f35b5080600319360112610216576102e5611ff1565b338152600c60205260ff60408220541661043757600b5480156103f2578034106103a257338252600c60205260408220805460ff19166001179055600d546001600160a01b0316818115610390575b61033d916124be565b803411610378575b6040519081527f575e1abe0108590b628d5353e2417412b29ae3f2c54e0abac4bd01a7782c8dc260203392a26001805580f35b61038b6103858234611d58565b336124be565b610345565b83546001600160a01b03169150610334565b60405162461bcd60e51b815260206004820152602260248201527f496e73756666696369656e7420726566657272616c206372656174696f6e2066604482015261656560f01b6064820152608490fd5b60405162461bcd60e51b815260206004820152601e60248201527f526566657272616c206372656174696f6e206665652064697361626c656400006044820152606490fd5b60405162461bcd60e51b815260206004820152602260248201527f526566657272616c206372656174696f6e2066656520616c72656164792070616044820152611a5960f21b6064820152608490fd5b5034610216576020366003190112610216576020906040906001600160a01b036104af611b98565b168152600683522054604051908152f35b50346102165780600319360112610216576020600254604051908152f35b50346102165760203660031901126102165760043561ffff8116908181036105ab57610508612426565b60648210158061059f575b1561056657600d805461ffff60a01b191660a09290921b61ffff60a01b169190911790556040519081527fe6fd72fe054b831bc81d655df6d52d7e71bf155bda7673a8e5ed229d50e2462990602090a180f35b60405162461bcd60e51b81526020600482015260116024820152700496e76616c69642070726f6d6f2063617607c1b6044820152606490fd5b5061012c821115610513565b8280fd5b5034610216576020366003190112610216576004356105cc612426565b69152d02c7e14af680000081116106175760407fbb0a2844d6b1e9cdc67329871e223f58180d2c5770519e89266aa4561392194a91600b549080600b5582519182526020820152a180f35b60405162461bcd60e51b815260206004820152600c60248201526b08ccaca40e8dede40d0d2ced60a31b6044820152606490fd5b503461021657602036600319011261021657602061066f61066a611b98565b611fc9565b604051908152f35b5034610216576040366003190112610216576040610693611b98565b9161069c611bb3565b9260018060a01b031681526005602052209060018060a01b03166000526020526020604060002054604051908152f35b50346102165780600319360112610216576008546040516001600160a01b039091168152602090f35b5034610216578060031936011261021657546040516001600160a01b039091168152602090f35b5034610216576020366003190112610216576020906001600160a01b03610741611b98565b16815260048252604060018060a01b0391205416604051908152f35b5034610216576020366003190112610216576080906040906001600160a01b03610785611b98565b168152600a602052205460ff6040519160018060a01b03811683526001600160401b038160a01c16602084015261ffff8160e01c16604084015260f01c166060820152f35b50346102165780600319360112610216576107e3612426565b80546001600160a01b03198116825581906001600160a01b03167f8be0079c531659141344cd1fd0a4f28419497f9722a3daafe3b4186f6b6457e08280a380f35b50346102165780600319360112610216576007546040516001600160a01b039091168152602090f35b50346102165760203660031901126102165760209060ff906040906001600160a01b03610878611b98565b168152600c84522054166040519015158152f35b5034610216578060031936011261021657602060405161012c8152f35b5034610216576040366003190112610216576108c3611b98565b6024356001600160401b0381116105ab576108e2903690600401611c2b565b908151906109086108f283611c14565b926109006040519485611bdd565b808452611c14565b602083019390601f19013685376001600160a01b0390911690845b81518110156109725760019060406001600160a01b036109438386611cac565b51168589526005602052818920600091858060a01b03168252602052205461096b8287611cac565b5201610923565b50505090604051928392602084019060208552518091526040840192915b81811061099e575050500390f35b8251845285945060209384019390920191600101610990565b5034610216578060031936011261021657602061ffff600d5460b01c16604051908152f35b5034610216576020366003190112610216576004356003548111610aa157600a81101580610a95575b15610a5057610a133361244f565b33825260066020528060408320556040519081527f8f946e10e829a370f22a384bbc792a909c82cc1998fd494ae5572b3c4de26c5760203392a280f35b60405162461bcd60e51b815260206004820152601a60248201527f6e6f742076616c69642066656520626173697320706f696e74730000000000006044820152606490fd5b5061012c811115610a05565b60405162461bcd60e51b815260206004820152601760248201527f4665652063616e6e6f742065786365656420746f74616c0000000000000000006044820152606490fd5b50346102165780600319360112610216576020600354604051908152f35b50346102165780600319360112610216576020600954604051908152f35b5034610216578060031936011261021657602060405169152d02c7e14af68000008152f35b611c90565b5034610216576020366003190112610216576004356001600160a01b03811690819003610bf757610b7b612426565b8015610bba57600d80546001600160a01b031916821790557f597dd534f81fa355bfcd38f2974aefa667e81e6938fab3ae43f36fe42e745fd78280a280f35b60405162461bcd60e51b8152602060048201526015602482015274125b9d985b1a5908199959481c9958da5c1a595b9d605a1b6044820152606490fd5b5080fd5b50346102165780600319360112610216576020600b54604051908152f35b506040366003190112610216576004356001600160401b038111610bf75736602382011215610bf7578060040135906001600160401b0382116105ab57818101906024820190368211610f7857610c6e611bb3565b93610c77611ff1565b1561181d57602081840312610f78576024810135906001600160401b03821161181957019061014082840312610f78576040519261014084018481106001600160401b038211176118055760405260248301356001600160401b0381116116d55760249084010182601f820112156116d5578035610cf481611c14565b91610d026040519384611bdd565b81835260208084019260051b820101908582116118015760208101925b8284106116d95750505050845260448301356001600160401b0381116116d5576024908401019180601f840112156116d557823591610d5d83611c14565b93610d6b6040519586611bdd565b83855260208086019460061b82010192831161167757602001925b82841061167b57505050506020830152610da260648201611bc9565b9060408301918252610db660848201611bc9565b916060840193838552610dcb60a48401611bc9565b608082015260c483013560a082015260e483013560c082015260e08101936101048401358552610144610100830194610124810135865201358015158103611677576101208301526001600160a01b0316801596908715611648575b5086156115fd57845134036115c1575b6001600160a01b03811680151590816115b6575b50611598575b50610e5b336121b1565b9491968651928051918b9a61ffff600354951694851015611553578c973390526000146110c957506001600160a01b03891692831515806110c0575b610f8b575b5050505050610ec5610eb79160405192839160208301611e08565b03601f198101835282611bdd565b60018060a01b0360075416845191813b15610f87578391610f049160405194858094819363985f61a160e01b8352602060048401526024830190611dc7565b03925af18015610f7c57610f63575b5050610f20905b33612392565b5191604051928352602083015260018060a01b0316907fdd36740e2a012d93061a0d99eaa9107860955de4e90027d3cf465a055026c40760403392a36001805580f35b81610f6d91611bdd565b610f78578438610f13565b8480fd5b6040513d84823e3d90fd5b8380fd5b610f9e919293949a50600354908b6122d9565b9889610fab575b80610e9c565b909192939450610fd1610fbe8a83611d58565b91610fca831515611d7b565b82856122d9565b921515806110b8575b6110af575b8652528087526005602052604087208780526020526040872080549087820180921161109b5792610eb792610ec5928a95557ece4f934f6c9243787582f181be4702d41dc3a22c7248942bab6b759ca2619c60806040513381528360208201528760408201528b6060820152a1845260056020908152604080862086805282528086205481516001600160a01b038b811682528816938101939093529082015260008051602061261d83398151915290606090a1913880610fa5565b634e487b7160e01b89526011600452602489fd5b60019250610fdf565b508215610fda565b50801515610e97565b80516040516370a0823160e01b81523060048201529197506001600160a01b03169593906020816024818a5afa908115611548578d8092611510575b50506040516323b872dd60e01b6020820152336024820152306044820152606481018790526111419061113b8160848101610eb7565b88612523565b6040516370a0823160e01b8152306004820152908d6020836024818c5afa9081156115045780916114ca575b506111789250611d58565b908115611490578c976001600160a01b038c169182151580611487575b611345575b505050916111e9959493916111c86111b58d6111f796611d58565b956111c1871515611d7b565b86846122d9565b9115158061133d575b611334575b848a525260405194859160208301611e08565b03601f198101855284611bdd565b60075460405163095ea7b360e01b60208083019182526001600160a01b039093166024830181905260448084019590955293825292939092909190869061123f606486611bdd565b84519082855af185513d82611318575b5050156112d3575b50506007546001600160a01b0316919050813b156105ab5782916112999160405194858094819363985f61a160e01b8352602060048401526024830190611dc7565b03925af180156112c8576112b2575b50610f2090610f1a565b946112c181610f209397611bdd565b94906112a8565b6040513d88823e3d90fd5b61130b611310936040519063095ea7b360e01b6020830152602482015286604482015260448152611305606482611bdd565b82612523565b612523565b388080611257565b90915061132c5750803b15155b388061124f565b600114611325565b600191506111d6565b5081156111d1565b61135d9193929d5060039998979695995490836122d9565b9b8c9283611374575b82935098949596979861119a565b9193949698959750915060018060a01b0390511690808d52600560205260408d208d60018060a01b038416905260205260408d208054908d8201809211611473578d8f9a989560008051602061261d8339815191528f966111e99c9a976114638f6040906111f79d9a6111c89a6111b59a557ece4f934f6c9243787582f181be4702d41dc3a22c7248942bab6b759ca2619c6080845133815283602082015288868201528b6060820152a18152600560209081528282206001600160a01b0396871680845290825292909120546040805195909616855290840191909152928201929092529081906060820190565b0390a19395965093999850611366565b634e487b7160e01b8f52601160045260248ffd5b50801515611195565b60405162461bcd60e51b8152602060048201526012602482015271139bc81d1bdad95b9cc81c9958d95a5d995960721b6044820152606490fd5b60209150839082903d84116114fc575b6114e48284611bdd565b50810103126114f85761117891518e61116d565b8d80fd5b3d91506114da565b604051903d90823e3d90fd5b8192509060209182903d8411611540575b61152b8284611bdd565b508101031261153c5751388d611105565b8c80fd5b3d9150611521565b6040513d8f823e3d90fd5b60405162461bcd60e51b815260206004820152601e60248201527f466565206578636565647320746f74616c20626173697320706f696e747300006044820152606490fd5b8061ffff6115a86115b093611fc9565b169033612013565b38610e51565b905033141538610e4b565b60405162461bcd60e51b8152602060048201526014602482015273125b98dbdc9c9958dd0811551208185b5bdd5b9d60621b6044820152606490fd5b3415610e375760405162461bcd60e51b815260206004820152601d60248201527f455448206e6f74206e656564656420666f7220746f6b656e20737761700000006044820152606490fd5b73a1077a294dde1b09bb078844df40758a5d0f9a27919750148061166e575b9538610e27565b50341515611667565b8880fd5b60406024858403011261167757604051604081018181106001600160401b038211176116c157916020916040938452863581528287013583820152815201930192610d86565b634e487b7160e01b8b52604160045260248bfd5b8680fd5b83356001600160401b0381116117fd5782019060e0600483890301126117fd576040519160e083018381106001600160401b038211176117e95760405260208101356001600160401b0381116114f85760209082010189601f820112156114f8578981602061174a93359101611d21565b835260408101356001600160401b0381116114f85789602061176e92840101611c2b565b602084015261177f60608201611bc9565b60408401526080810135606084015260a0810135608084015260c081013560a084015260e08101356001600160401b0381116114f85760209101019088601f8301121561153c576020926117d98a84868096359101611d21565b60c0820152815201930192610d1f565b634e487b7160e01b8e52604160045260248efd5b8b80fd5b8980fd5b634e487b7160e01b87526041600452602487fd5b8580fd5b60405162461bcd60e51b8152602060048201526012602482015271496e76616c696420726f757465206461746160701b6044820152606490fd5b5034610216576020366003190112610216576004356001600160401b038111610bf757611888903690600401611c2b565b611890611ff1565b815b8151811015611b6d576001600160a01b036118ad8284611cac565b51169033845260056020526040842060018060a01b03831685526020526040842054918215611b6357806119f357508147106119ae573384526005602052604084208480526020528360408120558380808085335af161190b611cf1565b5015611974577f42e24913771139616a812c16f5cebf6b166c64d2372c1ef418e7e78ff6402d32606060019360008051602061261d83398151915282604051338152896020820152896040820152a1604051903382528760208301526040820152a15b01611892565b60405162461bcd60e51b815260206004820152601260248201527108cc2d2d8cac840e8de40e6cadcc8408aa8960731b6044820152606490fd5b60405162461bcd60e51b815260206004820152601860248201527f496e73756666696369656e74204554482062616c616e636500000000000000006044820152606490fd5b6040516370a0823160e01b8152306004820152602081602481855afa80156112c85784918791611b2f575b5010611aea57338086526005602090815260408088206001600160a01b038516895282528088208890555163a9059cbb60e01b918101919091526024810191909152604481018490526001937f42e24913771139616a812c16f5cebf6b166c64d2372c1ef418e7e78ff6402d32929091611a9f906113058160648101610eb7565b60008051602061261d8339815191526060604051338152836020820152896040820152a1604080513381526001600160a01b03929092166020830152810191909152606090a161196e565b60405162461bcd60e51b815260206004820152601a60248201527f496e73756666696369656e7420746f6b656e2062616c616e63650000000000006044820152606490fd5b9150506020813d8211611b5b575b81611b4a60209383611bdd565b810103126118195783905138611a1e565b3d9150611b3d565b506001915061196e565b826001805580f35b905034610bf75781600319360112610bf75760209061ffff600d5460a01c168152f35b600435906001600160a01b0382168203611bae57565b600080fd5b602435906001600160a01b0382168203611bae57565b35906001600160a01b0382168203611bae57565b90601f801991011681019081106001600160401b03821117611bfe57604052565b634e487b7160e01b600052604160045260246000fd5b6001600160401b038111611bfe5760051b60200190565b9080601f83011215611bae578135611c4281611c14565b92611c506040519485611bdd565b81845260208085019260051b820101928311611bae57602001905b828210611c785750505090565b60208091611c8584611bc9565b815201910190611c6b565b34611bae576000366003190112611bae57602060405160648152f35b8051821015611cc05760209160051b010190565b634e487b7160e01b600052603260045260246000fd5b6001600160401b038111611bfe57601f01601f191660200190565b3d15611d1c573d90611d0282611cd6565b91611d106040519384611bdd565b82523d6000602084013e565b606090565b929192611d2d82611cd6565b91611d3b6040519384611bdd565b829481845281830111611bae578281602093846000960137010152565b91908203918211611d6557565b634e487b7160e01b600052601160045260246000fd5b15611d8257565b60405162461bcd60e51b815260206004820152601e60248201527f496e73756666696369656e7420616d6f756e74206166746572206665657300006044820152606490fd5b919082519283825260005b848110611df3575050826000602080949584010152601f8019910116010190565b80602080928401015182828601015201611dd2565b602081526101608101918051926101406020840152835180915261018083019060206101808260051b8601019501916000905b828210611f035750505050602081810151838503601f1901604085015280518086529482019491019060005b818110611ee1575050506101206101409160018060a01b03604082015116606085015260018060a01b03606082015116608085015260018060a01b0360808201511660a085015260a081015160c085015260c081015160e085015260e0810151610100850152610100810151828501520151151591015290565b8251805187526020908101518188015260409096019590920191600101611e67565b9091929561017f19868203018252865190611f27825160e0835260e0830190611dc7565b9160208101519282810360208401526020808551928381520194019060005b818110611faa57505050611f9c60019360209360c08594878060a01b036040820151166040840152606081015160608401526080810151608084015260a081015160a084015201519060c0818403910152611dc7565b980192019201909291611e3b565b82516001600160a01b0316865260209586019590920191600101611f46565b6001600160a01b03166000908152600660205260409020548015611fea5790565b5060025490565b600260015414612002576002600155565b633ee5aeb560e01b60005260046000fd5b6001600160a01b03821692908315801561219f575b612199576001600160a01b039081166000818152600a60205260409020805491949290911615801590612179575b612172577fab866771571f6739ca4d6b94711c3bb9ee4e3e16010dde817e8bbcf83c66a27e9261208760409361244f565b61ffff600d5460a01c16908161ffff82161160001461216a5750905b80546affffffffffffffffffffff60a01b1987166001600160f81b0319909116174260a01b67ffffffffffffffff60a01b161760e083901b61ffff60e01b1617600360f01b17905560008481526004602052829020546001600160a01b03161561211a575b61ffff825191428352166020820152a3565b83600052600460205281600020856bffffffffffffffffffffffff60a01b82541617905584847f5f1ca2fcc108b751843a763e60d2201f593516109d7dbb1b700468f2d4190bb7600080a3612108565b9050906120a3565b5050505050565b506000848152600460205260409020546001600160a01b03161515612056565b50505050565b506001600160a01b0381168414612028565b6001600160a01b03166000818152600a602052604090819020905190608082016001600160401b03811183821017611bfe576040525460ff60018060a01b038216918284526001600160401b038160a01c16602085015261ffff8160e01c16604085015260f01c1660608301526122bd57506000908152600460205260409020546001600160a01b03168061228c57506008546001600160a01b03168061225e5750600090600090600090565b600954600d5491929160b01c61ffff16908181116122855761ffff915016915b9190600090565b509161227e565b9061ffff61229983611fc9565b1661ffff600d5460b01c168082106000146122b5575090600090565b90509161227e565b9190506122c98261258a565b92516001600160a01b0316929091565b9091600019838309928083029283808610950394808603951461236e57848311156123555790829109816000038216809204600281600302188082026002030280820260020302808202600203028082026002030280820260020302809102600203029360018380600003040190848311900302920304170290565b82634e487b71600052156003026011186020526024601cfd5b50508092501561237c570490565b634e487b7160e01b600052601260045260246000fd5b9015612423576001600160a01b03166000818152600a60205260409020805460f01c60ff16806123c157505050565b815460ff60f01b19811660001990920160f090811b60ff60f01b1692909217928390556040519290911c60ff1682526001600160a01b031691907fedc23f9770cd130ea9d1f4b225a7f2554ab99c36557ddde5317bb8df1981293f90602090a3565b50565b6000546001600160a01b0316330361243a57565b63118cdaa760e01b6000523360045260246000fd5b600b5415612423576001600160a01b03166000908152600c602052604090205460ff161561247957565b60405162461bcd60e51b815260206004820152601e60248201527f5265666572726572206d75737420706179206372656174696f6e2066656500006044820152606490fd5b81471061250a576000918291829182916001600160a01b03165af16124e1611cf1565b90156124ea5750565b8051156124f957602081519101fd5b63d6bda27560e01b60005260046000fd5b504763cf47918160e01b60005260045260245260446000fd5b906000602091828151910182855af11561257e576000513d61257557506001600160a01b0381163b155b6125545750565b635274afe760e01b60009081526001600160a01b0391909116600452602490fd5b6001141561254d565b6040513d6000823e3d90fd5b80516001600160a01b03169081156126125761ffff9160ff6060830151166125e45750516125c0906001600160a01b0316611fc9565b1661ffff600d5460b01c168082106000146125dd57505b90600090565b90506125d7565b6125ee9150611fc9565b1661ffff600d5460a01c1680821060001461260b57505b90600190565b9050612605565b505060009060009056feb33d51d6ef09d09bda3ffd15eba49d63a569803b711c3f0d6b8ceb6834f7f557a2646970667358221220d8de6edc3b64164c746354d658f8c063e0211378d425aef9b32611989cd5eccf64736f6c634300081c0033",
  "linkReferences": {},
  "deployedLinkReferences": {}
}