{
  "_format": "hh-sol-artifact-1",
  "contractName": "AffiliateRouter",
  "sourceName": "contracts/AffiliateRouter.sol",
  "abi": [
    {
      "inputs": [
        {
          "internalType": "address",
          "name": "_swapManager",
          "type": "address"
        }
      ],
      "stateMutability": "nonpayable",
      "type": "constructor"
    },
    {
      "inputs": [],
      "name": "FailedCall",
      "type": "error"
    },
    {
      "inputs": [
        {
          "internalType": "uint256",
          "name": "balance",
          "type": "uint256"
        },
        {
          "internalType": "uint256",
          "name": "needed",
          "type": "uint256"
        }
      ],
      "name": "InsufficientBalance",
      "type": "error"
    },
    {
      "inputs": [
        {
          "internalType": "address",
          "name": "owner",
          "type": "address"
        }
      ],
      "name": "OwnableInvalidOwner",
      "type": "error"
    },
    {
      "inputs": [
        {
          "internalType": "address",
          "name": "account",
          "type": "address"
        }
      ],
      "name": "OwnableUnauthorizedAccount",
      "type": "error"
    },
    {
      "inputs": [],
      "name": "ReentrancyGuardReentrantCall",
      "type": "error"
    },
    {
      "inputs": [
        {
          "internalType": "address",
          "name": "token",
          "type": "address"
        }
      ],
      "name": "SafeERC20FailedOperation",
      "type": "error"
    },
    {
      "anonymous": false,
      "inputs": [
        {
          "indexed": false,
          "internalType": "uint256",
          "name": "feeBasisPoints",
          "type": "uint256"
        }
      ],
      "name": "DefaultReferrerFeeUpdated",
      "type": "event"
    },
    {
      "anonymous": false,
      "inputs": [
        {
          "indexed": true,
          "internalType": "address",
          "name": "referrer",
          "type": "address"
        },
        {
          "indexed": false,
          "internalType": "uint256",
          "name": "feeBasisPoints",
          "type": "uint256"
        }
      ],
      "name": "DefaultReferrerUpdated",
      "type": "event"
    },
    {
      "anonymous": false,
      "inputs": [
        {
          "indexed": true,
          "internalType": "address",
          "name": "user",
          "type": "address"
        },
        {
          "indexed": false,
          "internalType": "uint256",
          "name": "newFeeBasisPoints",
          "type": "uint256"
        }
      ],
      "name": "FeeBasisPointsUpdated",
      "type": "event"
    },
    {
      "anonymous": false,
      "inputs": [
        {
          "indexed": false,
          "internalType": "uint16",
          "name": "newMaxPromoBps",
          "type": "uint16"
        }
      ],
      "name": "MaxPromoBpsUpdated",
      "type": "event"
    },
    {
      "anonymous": false,
      "inputs": [
        {
          "indexed": true,
          "internalType": "address",
          "name": "previousOwner",
          "type": "address"
        },
        {
          "indexed": true,
          "internalType": "address",
          "name": "newOwner",
          "type": "address"
        }
      ],
      "name": "OwnershipTransferred",
      "type": "event"
    },
    {
      "anonymous": false,
      "inputs": [
        {
          "indexed": true,
          "internalType": "address",
          "name": "user",
          "type": "address"
        },
        {
          "indexed": true,
          "internalType": "address",
          "name": "referrer",
          "type": "address"
        },
        {
          "indexed": false,
          "internalType": "uint8",
          "name": "remaining",
          "type": "uint8"
        }
      ],
      "name": "PromoConsumed",
      "type": "event"
    },
    {
      "anonymous": false,
      "inputs": [
        {
          "indexed": true,
          "internalType": "address",
          "name": "user",
          "type": "address"
        },
        {
          "indexed": true,
          "internalType": "address",
          "name": "referrer",
          "type": "address"
        },
        {
          "indexed": false,
          "internalType": "uint256",
          "name": "boundAt",
          "type": "uint256"
        },
        {
          "indexed": false,
          "internalType": "uint16",
          "name": "promoBps",
          "type": "uint16"
        }
      ],
      "name": "ReferralBound",
      "type": "event"
    },
    {
      "anonymous": false,
      "inputs": [
        {
          "indexed": true,
          "internalType": "address",
          "name": "payer",
          "type": "address"
        },
        {
          "indexed": false,
          "internalType": "uint256",
          "name": "amount",
          "type": "uint256"
        }
      ],
      "name": "ReferralCreationFeePaid",
      "type": "event"
    },
    {
      "anonymous": false,
      "inputs": [
        {
          "indexed": false,
          "internalType": "uint256",
          "name": "oldFee",
          "type": "uint256"
        },
        {
          "indexed": false,
          "internalType": "uint256",
          "name": "newFee",
          "type": "uint256"
        }
      ],
      "name": "ReferralCreationFeeUpdated",
      "type": "event"
    },
    {
      "anonymous": false,
      "inputs": [
        {
          "indexed": false,
          "internalType": "address",
          "name": "user",
          "type": "address"
        },
        {
          "indexed": false,
          "internalType": "address",
          "name": "referrer",
          "type": "address"
        },
        {
          "indexed": false,
          "internalType": "address",
          "name": "token",
          "type": "address"
        },
        {
          "indexed": false,
          "internalType": "uint256",
          "name": "amount",
          "type": "uint256"
        }
      ],
      "name": "ReferralFeeAdded",
      "type": "event"
    },
    {
      "anonymous": false,
      "inputs": [
        {
          "indexed": false,
          "internalType": "address",
          "name": "referrer",
          "type": "address"
        },
        {
          "indexed": false,
          "internalType": "address",
          "name": "token",
          "type": "address"
        },
        {
          "indexed": false,
          "internalType": "uint256",
          "name": "amount",
          "type": "uint256"
        }
      ],
      "name": "ReferralFeeAmountUpdated",
      "type": "event"
    },
    {
      "anonymous": false,
      "inputs": [
        {
          "indexed": true,
          "internalType": "address",
          "name": "newRecipient",
          "type": "address"
        }
      ],
      "name": "ReferralFeeRecipientUpdated",
      "type": "event"
    },
    {
      "anonymous": false,
      "inputs": [
        {
          "indexed": false,
          "internalType": "address",
          "name": "referrer",
          "type": "address"
        },
        {
          "indexed": false,
          "internalType": "address",
          "name": "token",
          "type": "address"
        },
        {
          "indexed": false,
          "internalType": "uint256",
          "name": "amount",
          "type": "uint256"
        }
      ],
      "name": "ReferralFeeWithdrawn",
      "type": "event"
    },
    {
      "anonymous": false,
      "inputs": [
        {
          "indexed": true,
          "internalType": "address",
          "name": "user",
          "type": "address"
        },
        {
          "indexed": true,
          "internalType": "address",
          "name": "referrer",
          "type": "address"
        }
      ],
      "name": "ReferralRegistered",
      "type": "event"
    },
    {
      "anonymous": false,
      "inputs": [
        {
          "indexed": true,
          "internalType": "address",
          "name": "user",
          "type": "address"
        },
        {
          "indexed": true,
          "internalType": "address",
          "name": "referrer",
          "type": "address"
        },
        {
          "indexed": false,
          "internalType": "uint256",
          "name": "amountIn",
          "type": "uint256"
        },
        {
          "indexed": false,
          "internalType": "uint256",
          "name": "feeAmount",
          "type": "uint256"
        }
      ],
      "name": "SwapExecuted",
      "type": "event"
    },
    {
      "anonymous": false,
      "inputs": [
        {
          "indexed": true,
          "internalType": "address",
          "name": "newSwapManager",
          "type": "address"
        }
      ],
      "name": "SwapManagerUpdated",
      "type": "event"
    },
    {
      "anonymous": false,
      "inputs": [
        {
          "indexed": false,
          "internalType": "uint16",
          "name": "newTailBps",
          "type": "uint16"
        }
      ],
      "name": "TailBpsUpdated",
      "type": "event"
    },
    {
      "inputs": [],
      "name": "DEFAULT_DEV_REFERRER",
      "outputs": [
        {
          "internalType": "address",
          "name": "",
          "type": "address"
        }
      ],
      "stateMutability": "view",
      "type": "function"
    },
    {
      "inputs": [],
      "name": "DEFAULT_TAIL_BPS",
      "outputs": [
        {
          "internalType": "uint16",
          "name": "",
          "type": "uint16"
        }
      ],
      "stateMutability": "view",
      "type": "function"
    },
    {
      "inputs": [],
      "name": "MAX_REFERRAL_CREATION_FEE",
      "outputs": [
        {
          "internalType": "uint256",
          "name": "",
          "type": "uint256"
        }
      ],
      "stateMutability": "view",
      "type": "function"
    },
    {
      "inputs": [],
      "name": "PROMO_CAP_MAX_BPS",
      "outputs": [
        {
          "internalType": "uint16",
          "name": "",
          "type": "uint16"
        }
      ],
      "stateMutability": "view",
      "type": "function"
    },
    {
      "inputs": [],
      "name": "PROMO_CAP_MIN_BPS",
      "outputs": [
        {
          "internalType": "uint16",
          "name": "",
          "type": "uint16"
        }
      ],
      "stateMutability": "view",
      "type": "function"
    },
    {
      "inputs": [],
      "name": "PROMO_SWAP_COUNT",
      "outputs": [
        {
          "internalType": "uint8",
          "name": "",
          "type": "uint8"
        }
      ],
      "stateMutability": "view",
      "type": "function"
    },
    {
      "inputs": [],
      "name": "TAIL_MAX_BPS",
      "outputs": [
        {
          "internalType": "uint16",
          "name": "",
          "type": "uint16"
        }
      ],
      "stateMutability": "view",
      "type": "function"
    },
    {
      "inputs": [],
      "name": "TAIL_MIN_BPS",
      "outputs": [
        {
          "internalType": "uint16",
          "name": "",
          "type": "uint16"
        }
      ],
      "stateMutability": "view",
      "type": "function"
    },
    {
      "inputs": [],
      "name": "defaultFeeBasisPoints",
      "outputs": [
        {
          "internalType": "uint256",
          "name": "",
          "type": "uint256"
        }
      ],
      "stateMutability": "view",
      "type": "function"
    },
    {
      "inputs": [],
      "name": "defaultReferrer",
      "outputs": [
        {
          "internalType": "address",
          "name": "",
          "type": "address"
        }
      ],
      "stateMutability": "view",
      "type": "function"
    },
    {
      "inputs": [],
      "name": "defaultReferrerBasisPoints",
      "outputs": [
        {
          "internalType": "uint256",
          "name": "",
          "type": "uint256"
        }
      ],
      "stateMutability": "view",
      "type": "function"
    },
    {
      "inputs": [
        {
          "internalType": "bytes",
          "name": "routeBytes",
          "type": "bytes"
        },
        {
          "internalType": "address",
          "name": "referrerCode",
          "type": "address"
        }
      ],
      "name": "executeSwap",
      "outputs": [],
      "stateMutability": "payable",
      "type": "function"
    },
    {
      "inputs": [
        {
          "internalType": "address",
          "name": "user",
          "type": "address"
        }
      ],
      "name": "getFeeBasisPoints",
      "outputs": [
        {
          "internalType": "uint256",
          "name": "feeBasisPoints",
          "type": "uint256"
        }
      ],
      "stateMutability": "view",
      "type": "function"
    },
    {
      "inputs": [
        {
          "internalType": "address",
          "name": "referrer",
          "type": "address"
        },
        {
          "internalType": "address[]",
          "name": "tokens",
          "type": "address[]"
        }
      ],
      "name": "getReferrerEarnings",
      "outputs": [
        {
          "internalType": "uint256[]",
          "name": "earnings",
          "type": "uint256[]"
        }
      ],
      "stateMutability": "view",
      "type": "function"
    },
    {
      "inputs": [
        {
          "internalType": "address",
          "name": "account",
          "type": "address"
        }
      ],
      "name": "hasPaidReferralCreationFee",
      "outputs": [
        {
          "internalType": "bool",
          "name": "",
          "type": "bool"
        }
      ],
      "stateMutability": "view",
      "type": "function"
    },
    {
      "inputs": [],
      "name": "maxPromoBps",
      "outputs": [
        {
          "internalType": "uint16",
          "name": "",
          "type": "uint16"
        }
      ],
      "stateMutability": "view",
      "type": "function"
    },
    {
      "inputs": [],
      "name": "owner",
      "outputs": [
        {
          "internalType": "address",
          "name": "",
          "type": "address"
        }
      ],
      "stateMutability": "view",
      "type": "function"
    },
    {
      "inputs": [],
      "name": "payReferralCreationFee",
      "outputs": [],
      "stateMutability": "payable",
      "type": "function"
    },
    {
      "inputs": [
        {
          "internalType": "address",
          "name": "",
          "type": "address"
        }
      ],
      "name": "referral",
      "outputs": [
        {
          "internalType": "address",
          "name": "firstReferrer",
          "type": "address"
        },
        {
          "internalType": "uint64",
          "name": "boundAt",
          "type": "uint64"
        },
        {
          "internalType": "uint16",
          "name": "promoBps",
          "type": "uint16"
        },
        {
          "internalType": "uint8",
          "name": "promoRemaining",
          "type": "uint8"
        }
      ],
      "stateMutability": "view",
      "type": "function"
    },
    {
      "inputs": [],
      "name": "referralCreationFee",
      "outputs": [
        {
          "internalType": "uint256",
          "name": "",
          "type": "uint256"
        }
      ],
      "stateMutability": "view",
      "type": "function"
    },
    {
      "inputs": [
        {
          "internalType": "address",
          "name": "",
          "type": "address"
        }
      ],
      "name": "referralCreationFeePaid",
      "outputs": [
        {
          "internalType": "bool",
          "name": "",
          "type": "bool"
        }
      ],
      "stateMutability": "view",
      "type": "function"
    },
    {
      "inputs": [],
      "name": "referralFeeRecipient",
      "outputs": [
        {
          "internalType": "address payable",
          "name": "",
          "type": "address"
        }
      ],
      "stateMutability": "view",
      "type": "function"
    },
    {
      "inputs": [
        {
          "internalType": "address",
          "name": "",
          "type": "address"
        },
        {
          "internalType": "address",
          "name": "",
          "type": "address"
        }
      ],
      "name": "referrerEarnings",
      "outputs": [
        {
          "internalType": "uint256",
          "name": "",
          "type": "uint256"
        }
      ],
      "stateMutability": "view",
      "type": "function"
    },
    {
      "inputs": [],
      "name": "renounceOwnership",
      "outputs": [],
      "stateMutability": "nonpayable",
      "type": "function"
    },
    {
      "inputs": [
        {
          "internalType": "address",
          "name": "_defaultReferrer",
          "type": "address"
        }
      ],
      "name": "setDefaultReferrer",
      "outputs": [],
      "stateMutability": "nonpayable",
      "type": "function"
    },
    {
      "inputs": [
        {
          "internalType": "uint16",
          "name": "newFeeBps",
          "type": "uint16"
        }
      ],
      "name": "setDefaultReferrerBasisPoints",
      "outputs": [],
      "stateMutability": "nonpayable",
      "type": "function"
    },
    {
      "inputs": [
        {
          "internalType": "uint16",
          "name": "newMaxPromoBps",
          "type": "uint16"
        }
      ],
      "name": "setMaxPromoBps",
      "outputs": [],
      "stateMutability": "nonpayable",
      "type": "function"
    },
    {
      "inputs": [
        {
          "internalType": "uint256",
          "name": "newFee",
          "type": "uint256"
        }
      ],
      "name": "setReferralCreationFee",
      "outputs": [],
      "stateMutability": "nonpayable",
      "type": "function"
    },
    {
      "inputs": [
        {
          "internalType": "address payable",
          "name": "newRecipient",
          "type": "address"
        }
      ],
      "name": "setReferralFeeRecipient",
      "outputs": [],
      "stateMutability": "nonpayable",
      "type": "function"
    },
    {
      "inputs": [
        {
          "internalType": "address",
          "name": "_swapManager",
          "type": "address"
        }
      ],
      "name": "setSwapManager",
      "outputs": [],
      "stateMutability": "nonpayable",
      "type": "function"
    },
    {
      "inputs": [
        {
          "internalType": "uint16",
          "name": "newTailBps",
          "type": "uint16"
        }
      ],
      "name": "setTailBps",
      "outputs": [],
      "stateMutability": "nonpayable",
      "type": "function"
    },
    {
      "inputs": [],
      "name": "swapManager",
      "outputs": [
        {
          "internalType": "contract ISwapManager",
          "name": "",
          "type": "address"
        }
      ],
      "stateMutability": "view",
      "type": "function"
    },
    {
      "inputs": [],
      "name": "tailBps",
      "outputs": [
        {
          "internalType": "uint16",
          "name": "",
          "type": "uint16"
        }
      ],
      "stateMutability": "view",
      "type": "function"
    },
    {
      "inputs": [],
      "name": "totalBasisPoints",
      "outputs": [
        {
          "internalType": "uint256",
          "name": "",
          "type": "uint256"
        }
      ],
      "stateMutability": "view",
      "type": "function"
    },
    {
      "inputs": [
        {
          "internalType": "address",
          "name": "newOwner",
          "type": "address"
        }
      ],
      "name": "transferOwnership",
      "outputs": [],
      "stateMutability": "nonpayable",
      "type": "function"
    },
    {
      "inputs": [
        {
          "internalType": "uint256",
          "name": "newFeeBasisPoints",
          "type": "uint256"
        }
      ],
      "name": "updateFeeBasisPoints",
      "outputs": [],
      "stateMutability": "nonpayable",
      "type": "function"
    },
    {
      "inputs": [
        {
          "internalType": "address",
          "name": "",
          "type": "address"
        }
      ],
      "name": "userFeeBasisPoints",
      "outputs": [
        {
          "internalType": "uint256",
          "name": "",
          "type": "uint256"
        }
      ],
      "stateMutability": "view",
      "type": "function"
    },
    {
      "inputs": [
        {
          "internalType": "address",
          "name": "",
          "type": "address"
        }
      ],
      "name": "userReferrer",
      "outputs": [
        {
          "internalType": "address",
          "name": "",
          "type": "address"
        }
      ],
      "stateMutability": "view",
      "type": "function"
    },
    {
      "inputs": [
        {
          "internalType": "address[]",
          "name": "tokens",
          "type": "address[]"
        }
      ],
      "name": "withdrawReferralEarnings",
      "outputs": [],
      "stateMutability": "nonpayable",
      "type": "function"
    },
    {
      "stateMutability": "payable",
      "type": "receive"
    }
  ],
  "bytecode": "0x60803461018f57601f612b1338819003918201601f19168301916001600160401b038311848410176101945780849260209460405283398101031261018f57516001600160a01b0381169081900361018f5733156101795760008054336001600160a01b03198216811783556040519290916001600160a01b0316907f8be0079c531659141344cd1fd0a4f28419497f9722a3daafe3b4186f6b6457e09080a36001805581156101375750600780546001600160a01b0319908116929092179055606460028190556127106003556008805473137e0a3205023f78535ed303daed89fcde8d87c2931692909217909155600955681400e758f447240000600b55600d80546001600160c01b0319167664012c137e0a3205023f78535ed303daed89fcde8d87c217905560405161296890816101ab8239f35b62461bcd60e51b815260206004820152601460248201527f496e76616c69642073776170206d616e616765720000000000000000000000006044820152606490fd5b631e4fbdf760e01b600052600060045260246000fd5b600080fd5b634e487b7160e01b600052604160045260246000fdfe608080604052600436101561001d575b50361561001b57600080fd5b005b600090813560e01c90816301b5e6f414611e4f5750806302c3111414610894578063070951cc14611b3157806330284efc14611a8b5780633442c622146106b957806338061372146119c05780633c163ce014610d825780633d9f3e0d14610d645780633f108e4614610cb957806341b6538f14610a2357806349b9601f14610c8a5780634b623a5614610b935780634febe72114610b6e57806351cc0fe214610b5057806352ee4f6414610b3257806357802c7d14610a2857806365e8d6dd14610a23578063663d27d0146109fe578063678cbbb5146108f05780636822b01d146108d357806369859fd814610894578063709d039d1461086b578063715018a6146108115780637247959a146107a45780637c3fcc38146107635780638da5cb5b1461073c57806391b33125146107135780639213cd8d146106be578063a15deeab146106b9578063a3e9aadc1461068d578063a591ccb9146105f1578063b080209214610520578063b6f87d6c14610502578063bb809d07146104c9578063c210137d14610313578063d94e2e80146102ea578063dcf6e81914610277578063e31e7d031461025b5763f2fde38b0361000f5734610258576020366003190112610258576101ec611e72565b6101f4612309565b6001600160a01b031680156102445781546001600160a01b03198116821783556001600160a01b03167f8be0079c531659141344cd1fd0a4f28419497f9722a3daafe3b4186f6b6457e08380a380f35b631e4fbdf760e01b82526004829052602482fd5b80fd5b5034610258578060031936011261025857602060405160038152f35b503461025857602036600319011261025857610291611e72565b610299612309565b60018060a01b0316806bffffffffffffffffffffffff60a01b60085416176008557f6b9c1abeba6ba37f9deb72f5b7573ab7c05f13e0b4f1b0dfd999b0f06e14cbd66020600954604051908152a280f35b5034610258578060031936011261025857600d546040516001600160a01b039091168152602090f35b5080600319360112610258576103276122e7565b338152600c60205260ff60408220541661047957600b548015610434578034106103e457338252600c60205260408220805460ff19166001179055600d546001600160a01b03168181156103d2575b61037f916127b4565b8034116103ba575b6040519081527f575e1abe0108590b628d5353e2417412b29ae3f2c54e0abac4bd01a7782c8dc260203392a26001805580f35b6103cd6103c7823461204e565b336127b4565b610387565b83546001600160a01b03169150610376565b60405162461bcd60e51b815260206004820152602260248201527f496e73756666696369656e7420726566657272616c206372656174696f6e2066604482015261656560f01b6064820152608490fd5b60405162461bcd60e51b815260206004820152601e60248201527f526566657272616c206372656174696f6e206665652064697361626c656400006044820152606490fd5b60405162461bcd60e51b815260206004820152602260248201527f526566657272616c206372656174696f6e2066656520616c72656164792070616044820152611a5960f21b6064820152608490fd5b5034610258576020366003190112610258576020906040906001600160a01b036104f1611e72565b168152600683522054604051908152f35b50346102585780600319360112610258576020600254604051908152f35b50346102585760203660031901126102585760043561ffff8116908181036105ed5761054a612309565b600a821015806105e1575b156105a857600d805461ffff60a01b191660a09290921b61ffff60a01b169190911790556040519081527fe6fd72fe054b831bc81d655df6d52d7e71bf155bda7673a8e5ed229d50e2462990602090a180f35b60405162461bcd60e51b81526020600482015260116024820152700496e76616c69642070726f6d6f2063617607c1b6044820152606490fd5b5061012c821115610555565b8280fd5b50346102585760203660031901126102585760043561060e612309565b69152d02c7e14af680000081116106595760407fbb0a2844d6b1e9cdc67329871e223f58180d2c5770519e89266aa4561392194a91600b549080600b5582519182526020820152a180f35b60405162461bcd60e51b815260206004820152600c60248201526b08ccaca40e8dede40d0d2ced60a31b6044820152606490fd5b50346102585760203660031901126102585760206106b16106ac611e72565b6122bf565b604051908152f35b611f6a565b50346102585760403660031901126102585760406106da611e72565b916106e3611e8d565b9260018060a01b031681526005602052209060018060a01b03166000526020526020604060002054604051908152f35b50346102585780600319360112610258576008546040516001600160a01b039091168152602090f35b5034610258578060031936011261025857546040516001600160a01b039091168152602090f35b5034610258576020366003190112610258576020906001600160a01b03610788611e72565b16815260048252604060018060a01b0391205416604051908152f35b5034610258576020366003190112610258576080906040906001600160a01b036107cc611e72565b168152600a602052205460ff6040519160018060a01b03811683526001600160401b038160a01c16602084015261ffff8160e01c16604084015260f01c166060820152f35b503461025857806003193601126102585761082a612309565b80546001600160a01b03198116825581906001600160a01b03167f8be0079c531659141344cd1fd0a4f28419497f9722a3daafe3b4186f6b6457e08280a380f35b50346102585780600319360112610258576007546040516001600160a01b039091168152602090f35b50346102585760203660031901126102585760209060ff906040906001600160a01b036108bf611e72565b168152600c84522054166040519015158152f35b5034610258578060031936011261025857602060405161012c8152f35b50346102585760403660031901126102585761090a611e72565b6024356001600160401b0381116105ed57610929903690600401611f05565b9081519061094f61093983611eee565b926109476040519485611eb7565b808452611eee565b602083019390601f19013685376001600160a01b0390911690845b81518110156109b95760019060406001600160a01b0361098a8386611fa2565b51168589526005602052818920600091858060a01b0316825260205220546109b28287611fa2565b520161096a565b50505090604051928392602084019060208552518091526040840192915b8181106109e5575050500390f35b82518452859450602093840193909201916001016109d7565b5034610258578060031936011261025857602061ffff600d5460b01c16604051908152f35b611f86565b5034610258576020366003190112610258576004356003548111610aed57600a81101580610ae1575b15610a9c57610a5f33612745565b33825260066020528060408320556040519081527f8f946e10e829a370f22a384bbc792a909c82cc1998fd494ae5572b3c4de26c5760203392a280f35b60405162461bcd60e51b815260206004820152601a60248201527f6e6f742076616c69642066656520626173697320706f696e74730000000000006044820152606490fd5b5061012c811115610a51565b60405162461bcd60e51b815260206004820152601760248201527f4665652063616e6e6f742065786365656420746f74616c0000000000000000006044820152606490fd5b50346102585780600319360112610258576020600354604051908152f35b50346102585780600319360112610258576020600954604051908152f35b5034610258578060031936011261025857602060405169152d02c7e14af68000008152f35b50346102585760203660031901126102585760043561ffff8116809103610c8657610bbc612309565b600a81101580610c7b575b15610c3657806009557f3bb740b5a4af23ab377e44d5b880f79e88f5a658af57c591ec200d66a8f72c0c6020604051838152a16008546040519182526001600160a01b0316907f6b9c1abeba6ba37f9deb72f5b7573ab7c05f13e0b4f1b0dfd999b0f06e14cbd690602090a280f35b60405162461bcd60e51b815260206004820152601c60248201527f496e76616c69642064656661756c7420726566657272657220666565000000006044820152606490fd5b506064811115610bc7565b5080fd5b5034610258578060031936011261025857602060405173137e0a3205023f78535ed303daed89fcde8d87c28152f35b5034610258576020366003190112610258576004356001600160a01b03811690819003610c8657610ce8612309565b8015610d2757600d80546001600160a01b031916821790557f597dd534f81fa355bfcd38f2974aefa667e81e6938fab3ae43f36fe42e745fd78280a280f35b60405162461bcd60e51b8152602060048201526015602482015274125b9d985b1a5908199959481c9958da5c1a595b9d605a1b6044820152606490fd5b50346102585780600319360112610258576020600b54604051908152f35b506040366003190112610258576004356001600160401b038111610c865736602382011215610c86578060040135906001600160401b0382116105ed578181019060248201903682116110e157610dd7611e8d565b93610de06122e7565b15611986576020818403126110e1576024810135906001600160401b038211611982570190610140828403126110e1576040519261014084018481106001600160401b0382111761196e5760405260248301356001600160401b03811161183e5760249084010182601f8201121561183e578035610e5d81611eee565b91610e6b6040519384611eb7565b81835260208084019260051b8201019085821161196a5760208101925b8284106118425750505050845260448301356001600160401b03811161183e576024908401019180601f8401121561183e57823591610ec683611eee565b93610ed46040519586611eb7565b83855260208086019460061b8201019283116117e057602001925b8284106117e457505050506020830152610f0b60648201611ea3565b9060408301918252610f1f60848201611ea3565b916060840193838552610f3460a48401611ea3565b608082015260c483013560a082015260e483013560c082015260e081019361010484013585526101446101008301946101248101358652013580151581036117e0576101208301526001600160a01b03168015969087156117b1575b508615611766578451340361172a575b6001600160a01b038116801515908161171f575b50611701575b50610fc4336124d0565b9491968651928051918b9a61ffff6003549516948510156116bc578c9733905260001461123257506001600160a01b0389169283151580611229575b6110f4575b505050505061102e61102091604051928391602083016120fe565b03601f198101835282611eb7565b60018060a01b0360075416845191813b156110f057839161106d9160405194858094819363985f61a160e01b83526020600484015260248301906120bd565b03925af180156110e5576110cc575b5050611089905b336126b1565b5191604051928352602083015260018060a01b0316907fdd36740e2a012d93061a0d99eaa9107860955de4e90027d3cf465a055026c40760403392a36001805580f35b816110d691611eb7565b6110e157843861107c565b8480fd5b6040513d84823e3d90fd5b8380fd5b611107919293949a50600354908b6125f8565b9889611114575b80611005565b90919293945061113a6111278a8361204e565b91611133831515612071565b82856125f8565b92151580611221575b611218575b8652528087526005602052604087208780526020526040872080549087820180921161120457926110209261102e928a95557ece4f934f6c9243787582f181be4702d41dc3a22c7248942bab6b759ca2619c60806040513381528360208201528760408201528b6060820152a1845260056020908152604080862086805282528086205481516001600160a01b038b811682528816938101939093529082015260008051602061291383398151915290606090a191388061110e565b634e487b7160e01b89526011600452602489fd5b60019250611148565b508215611143565b50801515611000565b80516040516370a0823160e01b81523060048201529197506001600160a01b03169593906020816024818a5afa9081156116b1578d8092611679575b50506040516323b872dd60e01b6020820152336024820152306044820152606481018790526112aa906112a48160848101611020565b88612819565b6040516370a0823160e01b8152306004820152908d6020836024818c5afa90811561166d578091611633575b506112e1925061204e565b9081156115f9578c976001600160a01b038c1691821515806115f0575b6114ae575b505050916113529594939161133161131e8d6113609661204e565b9561132a871515612071565b86846125f8565b911515806114a6575b61149d575b848a5252604051948591602083016120fe565b03601f198101855284611eb7565b60075460405163095ea7b360e01b60208083019182526001600160a01b03909316602483018190526044808401959095529382529293909290919086906113a8606486611eb7565b84519082855af185513d82611481575b50501561143c575b50506007546001600160a01b0316919050813b156105ed5782916114029160405194858094819363985f61a160e01b83526020600484015260248301906120bd565b03925af180156114315761141b575b5061108990611083565b9461142a816110899397611eb7565b9490611411565b6040513d88823e3d90fd5b611474611479936040519063095ea7b360e01b602083015260248201528660448201526044815261146e606482611eb7565b82612819565b612819565b3880806113c0565b9091506114955750803b15155b38806113b8565b60011461148e565b6001915061133f565b50811561133a565b6114c69193929d5060039998979695995490836125f8565b9b8c92836114dd575b829350989495969798611303565b9193949698959750915060018060a01b0390511690808d52600560205260408d208d60018060a01b038416905260205260408d208054908d82018092116115dc578d8f9a98956000805160206129138339815191528f966113529c9a976115cc8f6040906113609d9a6113319a61131e9a557ece4f934f6c9243787582f181be4702d41dc3a22c7248942bab6b759ca2619c6080845133815283602082015288868201528b6060820152a18152600560209081528282206001600160a01b0396871680845290825292909120546040805195909616855290840191909152928201929092529081906060820190565b0390a193959650939998506114cf565b634e487b7160e01b8f52601160045260248ffd5b508015156112fe565b60405162461bcd60e51b8152602060048201526012602482015271139bc81d1bdad95b9cc81c9958d95a5d995960721b6044820152606490fd5b60209150839082903d8411611665575b61164d8284611eb7565b5081010312611661576112e191518e6112d6565b8d80fd5b3d9150611643565b604051903d90823e3d90fd5b8192509060209182903d84116116a9575b6116948284611eb7565b50810103126116a55751388d61126e565b8c80fd5b3d915061168a565b6040513d8f823e3d90fd5b60405162461bcd60e51b815260206004820152601e60248201527f466565206578636565647320746f74616c20626173697320706f696e747300006044820152606490fd5b8061ffff611711611719936122bf565b169033612332565b38610fba565b905033141538610fb4565b60405162461bcd60e51b8152602060048201526014602482015273125b98dbdc9c9958dd0811551208185b5bdd5b9d60621b6044820152606490fd5b3415610fa05760405162461bcd60e51b815260206004820152601d60248201527f455448206e6f74206e656564656420666f7220746f6b656e20737761700000006044820152606490fd5b73a1077a294dde1b09bb078844df40758a5d0f9a2791975014806117d7575b9538610f90565b503415156117d0565b8880fd5b6040602485840301126117e057604051604081018181106001600160401b0382111761182a57916020916040938452863581528287013583820152815201930192610eef565b634e487b7160e01b8b52604160045260248bfd5b8680fd5b83356001600160401b0381116119665782019060e060048389030112611966576040519160e083018381106001600160401b038211176119525760405260208101356001600160401b0381116116615760209082010189601f8201121561166157898160206118b393359101612017565b835260408101356001600160401b038111611661578960206118d792840101611f05565b60208401526118e860608201611ea3565b60408401526080810135606084015260a0810135608084015260c081013560a084015260e08101356001600160401b0381116116615760209101019088601f830112156116a5576020926119428a84868096359101612017565b60c0820152815201930192610e88565b634e487b7160e01b8e52604160045260248efd5b8b80fd5b8980fd5b634e487b7160e01b87526041600452602487fd5b8580fd5b60405162461bcd60e51b8152602060048201526012602482015271496e76616c696420726f757465206461746160701b6044820152606490fd5b50346102585760203660031901126102585760043561ffff8116908181036105ed576119ea612309565b600a82101580611a80575b15611a4857600d805461ffff60b01b191660b09290921b61ffff60b01b169190911790556040519081527fe89b410ff9fffa0549e7129193b7cbf471688856721e204bbe3da4ef948b526c90602090a180f35b60405162461bcd60e51b815260206004820152601060248201526f0496e76616c6964207461696c206361760841b6044820152606490fd5b5060648211156119f5565b503461025857602036600319011261025857611aa5611e72565b611aad612309565b6001600160a01b03168015611af557600780546001600160a01b031916821790557fd63cca66c7ee7e547a66403d7471b541b4ff53fa5bd1354ed518502ae977fb188280a280f35b60405162461bcd60e51b815260206004820152601460248201527324b73b30b634b21039bbb0b81036b0b730b3b2b960611b6044820152606490fd5b5034610258576020366003190112610258576004356001600160401b038111610c8657611b62903690600401611f05565b611b6a6122e7565b815b8151811015611e47576001600160a01b03611b878284611fa2565b51169033845260056020526040842060018060a01b03831685526020526040842054918215611e3d5780611ccd5750814710611c88573384526005602052604084208480526020528360408120558380808085335af1611be5611fe7565b5015611c4e577f42e24913771139616a812c16f5cebf6b166c64d2372c1ef418e7e78ff6402d32606060019360008051602061291383398151915282604051338152896020820152896040820152a1604051903382528760208301526040820152a15b01611b6c565b60405162461bcd60e51b815260206004820152601260248201527108cc2d2d8cac840e8de40e6cadcc8408aa8960731b6044820152606490fd5b60405162461bcd60e51b815260206004820152601860248201527f496e73756666696369656e74204554482062616c616e636500000000000000006044820152606490fd5b6040516370a0823160e01b8152306004820152602081602481855afa80156114315784918791611e09575b5010611dc457338086526005602090815260408088206001600160a01b038516895282528088208890555163a9059cbb60e01b918101919091526024810191909152604481018490526001937f42e24913771139616a812c16f5cebf6b166c64d2372c1ef418e7e78ff6402d32929091611d799061146e8160648101611020565b6000805160206129138339815191526060604051338152836020820152896040820152a1604080513381526001600160a01b03929092166020830152810191909152606090a1611c48565b60405162461bcd60e51b815260206004820152601a60248201527f496e73756666696369656e7420746f6b656e2062616c616e63650000000000006044820152606490fd5b9150506020813d8211611e35575b81611e2460209383611eb7565b810103126119825783905138611cf8565b3d9150611e17565b5060019150611c48565b826001805580f35b905034610c865781600319360112610c865760209061ffff600d5460a01c168152f35b600435906001600160a01b0382168203611e8857565b600080fd5b602435906001600160a01b0382168203611e8857565b35906001600160a01b0382168203611e8857565b90601f801991011681019081106001600160401b03821117611ed857604052565b634e487b7160e01b600052604160045260246000fd5b6001600160401b038111611ed85760051b60200190565b9080601f83011215611e88578135611f1c81611eee565b92611f2a6040519485611eb7565b81845260208085019260051b820101928311611e8857602001905b828210611f525750505090565b60208091611f5f84611ea3565b815201910190611f45565b34611e88576000366003190112611e8857602060405160648152f35b34611e88576000366003190112611e88576020604051600a8152f35b8051821015611fb65760209160051b010190565b634e487b7160e01b600052603260045260246000fd5b6001600160401b038111611ed857601f01601f191660200190565b3d15612012573d90611ff882611fcc565b916120066040519384611eb7565b82523d6000602084013e565b606090565b92919261202382611fcc565b916120316040519384611eb7565b829481845281830111611e88578281602093846000960137010152565b9190820391821161205b57565b634e487b7160e01b600052601160045260246000fd5b1561207857565b60405162461bcd60e51b815260206004820152601e60248201527f496e73756666696369656e7420616d6f756e74206166746572206665657300006044820152606490fd5b919082519283825260005b8481106120e9575050826000602080949584010152601f8019910116010190565b806020809284010151828286010152016120c8565b602081526101608101918051926101406020840152835180915261018083019060206101808260051b8601019501916000905b8282106121f95750505050602081810151838503601f1901604085015280518086529482019491019060005b8181106121d7575050506101206101409160018060a01b03604082015116606085015260018060a01b03606082015116608085015260018060a01b0360808201511660a085015260a081015160c085015260c081015160e085015260e0810151610100850152610100810151828501520151151591015290565b825180518752602090810151818801526040909601959092019160010161215d565b9091929561017f1986820301825286519061221d825160e0835260e08301906120bd565b9160208101519282810360208401526020808551928381520194019060005b8181106122a05750505061229260019360209360c08594878060a01b036040820151166040840152606081015160608401526080810151608084015260a081015160a084015201519060c08184039101526120bd565b980192019201909291612131565b82516001600160a01b031686526020958601959092019160010161223c565b6001600160a01b031660009081526006602052604090205480156122e05790565b5060025490565b6002600154146122f8576002600155565b633ee5aeb560e01b60005260046000fd5b6000546001600160a01b0316330361231d57565b63118cdaa760e01b6000523360045260246000fd5b6001600160a01b0382169290831580156124be575b6124b8576001600160a01b039081166000818152600a60205260409020805491949290911615801590612498575b612491577fab866771571f6739ca4d6b94711c3bb9ee4e3e16010dde817e8bbcf83c66a27e926123a6604093612745565b61ffff600d5460a01c16908161ffff8216116000146124895750905b80546affffffffffffffffffffff60a01b1987166001600160f81b0319909116174260a01b67ffffffffffffffff60a01b161760e083901b61ffff60e01b1617600360f01b17905560008481526004602052829020546001600160a01b031615612439575b61ffff825191428352166020820152a3565b83600052600460205281600020856bffffffffffffffffffffffff60a01b82541617905584847f5f1ca2fcc108b751843a763e60d2201f593516109d7dbb1b700468f2d4190bb7600080a3612427565b9050906123c2565b5050505050565b506000848152600460205260409020546001600160a01b03161515612375565b50505050565b506001600160a01b0381168414612347565b6001600160a01b03166000818152600a602052604090819020905190608082016001600160401b03811183821017611ed8576040525460ff60018060a01b038216918284526001600160401b038160a01c16602085015261ffff8160e01c16604085015260f01c1660608301526125dc57506000908152600460205260409020546001600160a01b0316806125ab57506008546001600160a01b03168061257d5750600090600090600090565b600954600d5491929160b01c61ffff16908181116125a45761ffff915016915b9190600090565b509161259d565b9061ffff6125b8836122bf565b1661ffff600d5460b01c168082106000146125d4575090600090565b90509161259d565b9190506125e882612880565b92516001600160a01b0316929091565b9091600019838309928083029283808610950394808603951461268d57848311156126745790829109816000038216809204600281600302188082026002030280820260020302808202600203028082026002030280820260020302809102600203029360018380600003040190848311900302920304170290565b82634e487b71600052156003026011186020526024601cfd5b50508092501561269b570490565b634e487b7160e01b600052601260045260246000fd5b9015612742576001600160a01b03166000818152600a60205260409020805460f01c60ff16806126e057505050565b815460ff60f01b19811660001990920160f090811b60ff60f01b1692909217928390556040519290911c60ff1682526001600160a01b031691907fedc23f9770cd130ea9d1f4b225a7f2554ab99c36557ddde5317bb8df1981293f90602090a3565b50565b600b5415612742576001600160a01b03166000908152600c602052604090205460ff161561276f57565b60405162461bcd60e51b815260206004820152601e60248201527f5265666572726572206d75737420706179206372656174696f6e2066656500006044820152606490fd5b814710612800576000918291829182916001600160a01b03165af16127d7611fe7565b90156127e05750565b8051156127ef57602081519101fd5b63d6bda27560e01b60005260046000fd5b504763cf47918160e01b60005260045260245260446000fd5b906000602091828151910182855af115612874576000513d61286b57506001600160a01b0381163b155b61284a5750565b635274afe760e01b60009081526001600160a01b0391909116600452602490fd5b60011415612843565b6040513d6000823e3d90fd5b80516001600160a01b03169081156129085761ffff9160ff6060830151166128da5750516128b6906001600160a01b03166122bf565b1661ffff600d5460b01c168082106000146128d357505b90600090565b90506128cd565b6128e491506122bf565b1661ffff600d5460a01c1680821060001461290157505b90600190565b90506128fb565b505060009060009056feb33d51d6ef09d09bda3ffd15eba49d63a569803b711c3f0d6b8ceb6834f7f557a2646970667358221220cf10ee435b8c63e946303170ec7b81f5572fd17635d2978b3be1b478e4427c0764736f6c634300081c0033",
  "linkReferences": {},
  "deployedLinkReferences": {}
}