{
  "_format": "hh-sol-artifact-1",
  "contractName": "AffiliateRouter",
  "sourceName": "contracts/AffiliateRouter.sol",
  "abi": [
    {
      "inputs": [],
      "name": "EnforcedPause",
      "type": "error"
    },
    {
      "inputs": [],
      "name": "ExpectedPause",
      "type": "error"
    },
    {
      "inputs": [],
      "name": "FailedCall",
      "type": "error"
    },
    {
      "inputs": [
        {
          "internalType": "uint256",
          "name": "balance",
          "type": "uint256"
        },
        {
          "internalType": "uint256",
          "name": "needed",
          "type": "uint256"
        }
      ],
      "name": "InsufficientBalance",
      "type": "error"
    },
    {
      "inputs": [],
      "name": "InvalidInitialization",
      "type": "error"
    },
    {
      "inputs": [],
      "name": "NotInitializing",
      "type": "error"
    },
    {
      "inputs": [
        {
          "internalType": "address",
          "name": "owner",
          "type": "address"
        }
      ],
      "name": "OwnableInvalidOwner",
      "type": "error"
    },
    {
      "inputs": [
        {
          "internalType": "address",
          "name": "account",
          "type": "address"
        }
      ],
      "name": "OwnableUnauthorizedAccount",
      "type": "error"
    },
    {
      "inputs": [],
      "name": "ReentrancyGuardReentrantCall",
      "type": "error"
    },
    {
      "inputs": [
        {
          "internalType": "address",
          "name": "token",
          "type": "address"
        }
      ],
      "name": "SafeERC20FailedOperation",
      "type": "error"
    },
    {
      "anonymous": false,
      "inputs": [
        {
          "indexed": false,
          "internalType": "uint256",
          "name": "newFeeBasisPoints",
          "type": "uint256"
        }
      ],
      "name": "DefaultFeeBasisPointsSet",
      "type": "event"
    },
    {
      "anonymous": false,
      "inputs": [
        {
          "indexed": true,
          "internalType": "address",
          "name": "referrer",
          "type": "address"
        },
        {
          "indexed": false,
          "internalType": "uint256",
          "name": "feeBasisPoints",
          "type": "uint256"
        }
      ],
      "name": "DefaultReferrerUpdated",
      "type": "event"
    },
    {
      "anonymous": false,
      "inputs": [
        {
          "indexed": true,
          "internalType": "address",
          "name": "user",
          "type": "address"
        },
        {
          "indexed": false,
          "internalType": "uint256",
          "name": "newFeeBasisPoints",
          "type": "uint256"
        }
      ],
      "name": "FeeBasisPointsUpdated",
      "type": "event"
    },
    {
      "anonymous": false,
      "inputs": [
        {
          "indexed": false,
          "internalType": "uint64",
          "name": "version",
          "type": "uint64"
        }
      ],
      "name": "Initialized",
      "type": "event"
    },
    {
      "anonymous": false,
      "inputs": [
        {
          "indexed": true,
          "internalType": "address",
          "name": "previousOwner",
          "type": "address"
        },
        {
          "indexed": true,
          "internalType": "address",
          "name": "newOwner",
          "type": "address"
        }
      ],
      "name": "OwnershipTransferred",
      "type": "event"
    },
    {
      "anonymous": false,
      "inputs": [
        {
          "indexed": false,
          "internalType": "address",
          "name": "account",
          "type": "address"
        }
      ],
      "name": "Paused",
      "type": "event"
    },
    {
      "anonymous": false,
      "inputs": [
        {
          "indexed": true,
          "internalType": "address",
          "name": "user",
          "type": "address"
        },
        {
          "indexed": true,
          "internalType": "address",
          "name": "referrer",
          "type": "address"
        },
        {
          "indexed": false,
          "internalType": "uint8",
          "name": "remaining",
          "type": "uint8"
        }
      ],
      "name": "PromoConsumed",
      "type": "event"
    },
    {
      "anonymous": false,
      "inputs": [
        {
          "indexed": true,
          "internalType": "address",
          "name": "user",
          "type": "address"
        },
        {
          "indexed": true,
          "internalType": "address",
          "name": "referrer",
          "type": "address"
        },
        {
          "indexed": false,
          "internalType": "uint256",
          "name": "boundAt",
          "type": "uint256"
        },
        {
          "indexed": false,
          "internalType": "uint16",
          "name": "promoBps",
          "type": "uint16"
        }
      ],
      "name": "ReferralBound",
      "type": "event"
    },
    {
      "anonymous": false,
      "inputs": [
        {
          "indexed": true,
          "internalType": "address",
          "name": "payer",
          "type": "address"
        },
        {
          "indexed": false,
          "internalType": "uint256",
          "name": "amount",
          "type": "uint256"
        }
      ],
      "name": "ReferralCreationFeePaid",
      "type": "event"
    },
    {
      "anonymous": false,
      "inputs": [
        {
          "indexed": false,
          "internalType": "uint256",
          "name": "oldFee",
          "type": "uint256"
        },
        {
          "indexed": false,
          "internalType": "uint256",
          "name": "newFee",
          "type": "uint256"
        }
      ],
      "name": "ReferralCreationFeeUpdated",
      "type": "event"
    },
    {
      "anonymous": false,
      "inputs": [
        {
          "indexed": false,
          "internalType": "address",
          "name": "user",
          "type": "address"
        },
        {
          "indexed": false,
          "internalType": "address",
          "name": "referrer",
          "type": "address"
        },
        {
          "indexed": false,
          "internalType": "address",
          "name": "token",
          "type": "address"
        },
        {
          "indexed": false,
          "internalType": "uint256",
          "name": "amount",
          "type": "uint256"
        }
      ],
      "name": "ReferralFeeAdded",
      "type": "event"
    },
    {
      "anonymous": false,
      "inputs": [
        {
          "indexed": false,
          "internalType": "address",
          "name": "referrer",
          "type": "address"
        },
        {
          "indexed": false,
          "internalType": "address",
          "name": "token",
          "type": "address"
        },
        {
          "indexed": false,
          "internalType": "uint256",
          "name": "amount",
          "type": "uint256"
        }
      ],
      "name": "ReferralFeeAmountUpdated",
      "type": "event"
    },
    {
      "anonymous": false,
      "inputs": [
        {
          "indexed": true,
          "internalType": "address",
          "name": "newRecipient",
          "type": "address"
        }
      ],
      "name": "ReferralFeeRecipientUpdated",
      "type": "event"
    },
    {
      "anonymous": false,
      "inputs": [
        {
          "indexed": false,
          "internalType": "address",
          "name": "referrer",
          "type": "address"
        },
        {
          "indexed": false,
          "internalType": "address",
          "name": "token",
          "type": "address"
        },
        {
          "indexed": false,
          "internalType": "uint256",
          "name": "amount",
          "type": "uint256"
        }
      ],
      "name": "ReferralFeeWithdrawn",
      "type": "event"
    },
    {
      "anonymous": false,
      "inputs": [
        {
          "indexed": true,
          "internalType": "address",
          "name": "user",
          "type": "address"
        },
        {
          "indexed": true,
          "internalType": "address",
          "name": "referrer",
          "type": "address"
        }
      ],
      "name": "ReferralRegistered",
      "type": "event"
    },
    {
      "anonymous": false,
      "inputs": [
        {
          "indexed": true,
          "internalType": "address",
          "name": "user",
          "type": "address"
        },
        {
          "indexed": true,
          "internalType": "address",
          "name": "referrer",
          "type": "address"
        },
        {
          "indexed": false,
          "internalType": "uint256",
          "name": "amountIn",
          "type": "uint256"
        },
        {
          "indexed": false,
          "internalType": "uint256",
          "name": "feeAmount",
          "type": "uint256"
        }
      ],
      "name": "SwapExecuted",
      "type": "event"
    },
    {
      "anonymous": false,
      "inputs": [
        {
          "indexed": false,
          "internalType": "address",
          "name": "account",
          "type": "address"
        }
      ],
      "name": "Unpaused",
      "type": "event"
    },
    {
      "inputs": [],
      "name": "MAX_PROMO_BPS",
      "outputs": [
        {
          "internalType": "uint16",
          "name": "",
          "type": "uint16"
        }
      ],
      "stateMutability": "view",
      "type": "function"
    },
    {
      "inputs": [],
      "name": "PROMO_SWAP_COUNT",
      "outputs": [
        {
          "internalType": "uint8",
          "name": "",
          "type": "uint8"
        }
      ],
      "stateMutability": "view",
      "type": "function"
    },
    {
      "inputs": [],
      "name": "TAIL_BPS",
      "outputs": [
        {
          "internalType": "uint16",
          "name": "",
          "type": "uint16"
        }
      ],
      "stateMutability": "view",
      "type": "function"
    },
    {
      "inputs": [],
      "name": "defaultFeeBasisPoints",
      "outputs": [
        {
          "internalType": "uint256",
          "name": "",
          "type": "uint256"
        }
      ],
      "stateMutability": "view",
      "type": "function"
    },
    {
      "inputs": [],
      "name": "defaultReferrer",
      "outputs": [
        {
          "internalType": "address",
          "name": "",
          "type": "address"
        }
      ],
      "stateMutability": "view",
      "type": "function"
    },
    {
      "inputs": [],
      "name": "defaultReferrerBasisPoints",
      "outputs": [
        {
          "internalType": "uint256",
          "name": "",
          "type": "uint256"
        }
      ],
      "stateMutability": "view",
      "type": "function"
    },
    {
      "inputs": [
        {
          "internalType": "bytes",
          "name": "routeBytes",
          "type": "bytes"
        },
        {
          "internalType": "address",
          "name": "referrerCode",
          "type": "address"
        }
      ],
      "name": "executeSwap",
      "outputs": [],
      "stateMutability": "payable",
      "type": "function"
    },
    {
      "inputs": [
        {
          "internalType": "address",
          "name": "user",
          "type": "address"
        }
      ],
      "name": "getFeeBasisPoints",
      "outputs": [
        {
          "internalType": "uint256",
          "name": "feeBasisPoints",
          "type": "uint256"
        }
      ],
      "stateMutability": "view",
      "type": "function"
    },
    {
      "inputs": [
        {
          "internalType": "address",
          "name": "referrer",
          "type": "address"
        },
        {
          "internalType": "address[]",
          "name": "tokens",
          "type": "address[]"
        }
      ],
      "name": "getReferrerEarnings",
      "outputs": [
        {
          "internalType": "uint256[]",
          "name": "earnings",
          "type": "uint256[]"
        }
      ],
      "stateMutability": "view",
      "type": "function"
    },
    {
      "inputs": [
        {
          "internalType": "address",
          "name": "account",
          "type": "address"
        }
      ],
      "name": "hasPaidReferralCreationFee",
      "outputs": [
        {
          "internalType": "bool",
          "name": "",
          "type": "bool"
        }
      ],
      "stateMutability": "view",
      "type": "function"
    },
    {
      "inputs": [
        {
          "internalType": "address",
          "name": "_swapManager",
          "type": "address"
        }
      ],
      "name": "initialize",
      "outputs": [],
      "stateMutability": "nonpayable",
      "type": "function"
    },
    {
      "inputs": [],
      "name": "owner",
      "outputs": [
        {
          "internalType": "address",
          "name": "",
          "type": "address"
        }
      ],
      "stateMutability": "view",
      "type": "function"
    },
    {
      "inputs": [],
      "name": "pause",
      "outputs": [],
      "stateMutability": "nonpayable",
      "type": "function"
    },
    {
      "inputs": [],
      "name": "paused",
      "outputs": [
        {
          "internalType": "bool",
          "name": "",
          "type": "bool"
        }
      ],
      "stateMutability": "view",
      "type": "function"
    },
    {
      "inputs": [],
      "name": "payReferralCreationFee",
      "outputs": [],
      "stateMutability": "payable",
      "type": "function"
    },
    {
      "inputs": [
        {
          "internalType": "address",
          "name": "",
          "type": "address"
        }
      ],
      "name": "referral",
      "outputs": [
        {
          "internalType": "address",
          "name": "firstReferrer",
          "type": "address"
        },
        {
          "internalType": "uint64",
          "name": "boundAt",
          "type": "uint64"
        },
        {
          "internalType": "uint16",
          "name": "promoBps",
          "type": "uint16"
        },
        {
          "internalType": "uint8",
          "name": "promoRemaining",
          "type": "uint8"
        }
      ],
      "stateMutability": "view",
      "type": "function"
    },
    {
      "inputs": [],
      "name": "referralCreationFee",
      "outputs": [
        {
          "internalType": "uint256",
          "name": "",
          "type": "uint256"
        }
      ],
      "stateMutability": "view",
      "type": "function"
    },
    {
      "inputs": [
        {
          "internalType": "address",
          "name": "",
          "type": "address"
        }
      ],
      "name": "referralCreationFeePaid",
      "outputs": [
        {
          "internalType": "bool",
          "name": "",
          "type": "bool"
        }
      ],
      "stateMutability": "view",
      "type": "function"
    },
    {
      "inputs": [],
      "name": "referralFeeRecipient",
      "outputs": [
        {
          "internalType": "address payable",
          "name": "",
          "type": "address"
        }
      ],
      "stateMutability": "view",
      "type": "function"
    },
    {
      "inputs": [
        {
          "internalType": "address",
          "name": "",
          "type": "address"
        },
        {
          "internalType": "address",
          "name": "",
          "type": "address"
        }
      ],
      "name": "referrerEarnings",
      "outputs": [
        {
          "internalType": "uint256",
          "name": "",
          "type": "uint256"
        }
      ],
      "stateMutability": "view",
      "type": "function"
    },
    {
      "inputs": [],
      "name": "renounceOwnership",
      "outputs": [],
      "stateMutability": "nonpayable",
      "type": "function"
    },
    {
      "inputs": [
        {
          "internalType": "uint256",
          "name": "newFeeBasisPoints",
          "type": "uint256"
        }
      ],
      "name": "setDefaultFeeBasisPoints",
      "outputs": [],
      "stateMutability": "nonpayable",
      "type": "function"
    },
    {
      "inputs": [
        {
          "internalType": "address",
          "name": "_defaultReferrer",
          "type": "address"
        }
      ],
      "name": "setDefaultReferrer",
      "outputs": [],
      "stateMutability": "nonpayable",
      "type": "function"
    },
    {
      "inputs": [
        {
          "internalType": "uint256",
          "name": "newFeeBasisPoints",
          "type": "uint256"
        }
      ],
      "name": "setDefaultReferrerBasisPoints",
      "outputs": [],
      "stateMutability": "nonpayable",
      "type": "function"
    },
    {
      "inputs": [
        {
          "internalType": "uint256",
          "name": "newFee",
          "type": "uint256"
        }
      ],
      "name": "setReferralCreationFee",
      "outputs": [],
      "stateMutability": "nonpayable",
      "type": "function"
    },
    {
      "inputs": [
        {
          "internalType": "address payable",
          "name": "newRecipient",
          "type": "address"
        }
      ],
      "name": "setReferralFeeRecipient",
      "outputs": [],
      "stateMutability": "nonpayable",
      "type": "function"
    },
    {
      "inputs": [],
      "name": "swapManager",
      "outputs": [
        {
          "internalType": "contract ISwapManager",
          "name": "",
          "type": "address"
        }
      ],
      "stateMutability": "view",
      "type": "function"
    },
    {
      "inputs": [],
      "name": "totalBasisPoints",
      "outputs": [
        {
          "internalType": "uint256",
          "name": "",
          "type": "uint256"
        }
      ],
      "stateMutability": "view",
      "type": "function"
    },
    {
      "inputs": [
        {
          "internalType": "address",
          "name": "newOwner",
          "type": "address"
        }
      ],
      "name": "transferOwnership",
      "outputs": [],
      "stateMutability": "nonpayable",
      "type": "function"
    },
    {
      "inputs": [],
      "name": "unpause",
      "outputs": [],
      "stateMutability": "nonpayable",
      "type": "function"
    },
    {
      "inputs": [
        {
          "internalType": "uint256",
          "name": "newFeeBasisPoints",
          "type": "uint256"
        }
      ],
      "name": "updateFeeBasisPoints",
      "outputs": [],
      "stateMutability": "nonpayable",
      "type": "function"
    },
    {
      "inputs": [
        {
          "internalType": "address",
          "name": "",
          "type": "address"
        }
      ],
      "name": "userFeeBasisPoints",
      "outputs": [
        {
          "internalType": "uint256",
          "name": "",
          "type": "uint256"
        }
      ],
      "stateMutability": "view",
      "type": "function"
    },
    {
      "inputs": [
        {
          "internalType": "address",
          "name": "",
          "type": "address"
        }
      ],
      "name": "userReferrer",
      "outputs": [
        {
          "internalType": "address",
          "name": "",
          "type": "address"
        }
      ],
      "stateMutability": "view",
      "type": "function"
    },
    {
      "inputs": [
        {
          "internalType": "address[]",
          "name": "tokens",
          "type": "address[]"
        }
      ],
      "name": "withdrawReferralEarnings",
      "outputs": [],
      "stateMutability": "nonpayable",
      "type": "function"
    },
    {
      "stateMutability": "payable",
      "type": "receive"
    }
  ],
  "bytecode": "0x608080604052346015576126b1908161001b8239f35b600080fdfe608080604052600436101561001d575b50361561001b57600080fd5b005b600090813560e01c90816302c3111414611d3457508063070951cc14611a015780633c163ce014610f1b5780633d9f3e0d14610efd5780633f108e4614610e4e5780633f4ba83a14610dcc57806351cc0fe214610dae57806352ee4f6414610d9057806353b6e74714610ce057806357802c7d14610c1f5780635c975abb14610bef578063678cbbb514610add57806369859fd814610a9e578063709d039d14610a75578063715018a614610a0b5780637247959a1461099e5780637c3fcc381461095d5780638456cb59146108e85780638da5cb5b146108b25780638ec2e6d41461089657806391b331251461086d5780639213cd8d14610818578063961eee16146107fb578063a3e9aadc146107cf578063a591ccb914610779578063b6f87d6c1461075c578063bb809d0714610723578063c210137d14610549578063c4d66de814610333578063d94e2e801461030a578063dcf6e8191461029c578063e31e7d0314610280578063ea134462146101cb5763f2fde38b0361000f57346101c85760203660031901126101c8576101c56101b8611d70565b6101c061242d565b61202c565b80f35b80fd5b50346101c85760203660031901126101c8576004356101e861242d565b6101f6600154821115611fb8565b600a81101580610274575b15610237576020817fa53387fcb91acbeeff3ab6f37270ae9552a7067ad681feb14a0d9952c74af3a7928455604051908152a180f35b60405162461bcd60e51b81526020600482015260156024820152744e6f742076616c69642064656661756c742062707360581b6044820152606490fd5b5061012c811115610201565b50346101c857806003193601126101c857602060405160038152f35b50346101c85760203660031901126101c8576102b6611d70565b6102be61242d565b60018060a01b0316806001600160601b0360a01b60065416176006557f6b9c1abeba6ba37f9deb72f5b7573ab7c05f13e0b4f1b0dfd999b0f06e14cbd66020600754604051908152a280f35b50346101c857806003193601126101c857600b546040516001600160a01b039091168152602090f35b50346101c85760203660031901126101c85761034d611d70565b60008051602061265c833981519152549060ff8260401c1615916001600160401b03811680159081610541575b6001149081610537575b15908161052e575b5061051f5767ffffffffffffffff19811660011760008051602061265c83398151915255826104f2575b506103bf6125ad565b6103c76125ad565b6103d03361202c565b6103d86125ad565b6103e06125ad565b600160008051602061263c833981519152556103fa6125ad565b6001600160a01b031680156104b6576001600160601b0360a01b6005541617600555601e82556127106001556001600160601b0360a01b60065416600655601e60075581600955336001600160601b0360a01b600b541617600b5561045c5780f35b68ff00000000000000001960008051602061265c833981519152541660008051602061265c833981519152557fc7f505b2f371ae2175ee4913f4499e1f2633a7b5936321eed1cdaeb6115181d2602060405160018152a180f35b60405162461bcd60e51b815260206004820152601460248201527324b73b30b634b21039bbb0b81036b0b730b3b2b960611b6044820152606490fd5b68ffffffffffffffffff1916680100000000000000011760008051602061265c83398151915255386103b6565b63f92ee8a960e01b8452600484fd5b9050153861038c565b303b159150610384565b84915061037a565b50806003193601126101c85761055d6120a2565b6105656120de565b338152600a60205260ff6040822054166106d357600954801561068e5780341061063e57338252600a60205260408220805460ff19166001179055600b546001600160a01b031681811561061e575b6105bd91612463565b803411610606575b6040519081527f575e1abe0108590b628d5353e2417412b29ae3f2c54e0abac4bd01a7782c8dc260203392a2600160008051602061263c8339815191525580f35b6106196106138234611f5d565b33612463565b6105c5565b6000805160206125dc833981519152546001600160a01b031691506105b4565b60405162461bcd60e51b815260206004820152602260248201527f496e73756666696369656e7420726566657272616c206372656174696f6e2066604482015261656560f01b6064820152608490fd5b60405162461bcd60e51b815260206004820152601e60248201527f526566657272616c206372656174696f6e206665652064697361626c656400006044820152606490fd5b60405162461bcd60e51b815260206004820152602260248201527f526566657272616c206372656174696f6e2066656520616c72656164792070616044820152611a5960f21b6064820152608490fd5b50346101c85760203660031901126101c8576020906040906001600160a01b0361074b611d70565b168152600483522054604051908152f35b50346101c857806003193601126101c85760209054604051908152f35b50346101c85760203660031901126101c8577fbb0a2844d6b1e9cdc67329871e223f58180d2c5770519e89266aa4561392194a60406004356107b961242d565b600954908060095582519182526020820152a180f35b50346101c85760203660031901126101c85760206107f36107ee611d70565b612004565b604051908152f35b50346101c857806003193601126101c857602060405161012c8152f35b50346101c85760403660031901126101c8576040610834611d70565b9161083d611d8b565b9260018060a01b031681526003602052209060018060a01b03166000526020526020604060002054604051908152f35b50346101c857806003193601126101c8576006546040516001600160a01b039091168152602090f35b50346101c857806003193601126101c8576020604051601e8152f35b50346101c857806003193601126101c8576000805160206125dc833981519152546040516001600160a01b039091168152602090f35b50346101c857806003193601126101c85761090161242d565b6109096120de565b600160ff1960008051602061261c83398151915254161760008051602061261c833981519152557f62e78cea01bee320cd4e420270b5ea74000d11b0c9f74754ebdbfc544b05a2586020604051338152a180f35b50346101c85760203660031901126101c8576020906001600160a01b03610982611d70565b16815260028252604060018060a01b0391205416604051908152f35b50346101c85760203660031901126101c8576080906040906001600160a01b036109c6611d70565b1681526008602052205460ff6040519160018060a01b03811683526001600160401b038160a01c16602084015261ffff8160e01c16604084015260f01c166060820152f35b50346101c857806003193601126101c857610a2461242d565b6000805160206125dc83398151915280546001600160a01b0319811690915581906001600160a01b03167f8be0079c531659141344cd1fd0a4f28419497f9722a3daafe3b4186f6b6457e08280a380f35b50346101c857806003193601126101c8576005546040516001600160a01b039091168152602090f35b50346101c85760203660031901126101c85760209060ff906040906001600160a01b03610ac9611d70565b168152600a84522054166040519015158152f35b50346101c85760403660031901126101c857610af7611d70565b6024356001600160401b038111610beb57610b16903690600401611e03565b90815190610b3c610b2683611dec565b92610b346040519485611db5565b808452611dec565b602083019390601f19013685376001600160a01b0390911690845b8151811015610ba65760019060406001600160a01b03610b778386611e68565b51168589526003602052818920600091858060a01b031682526020522054610b9f8287611e68565b5201610b57565b50505090604051928392602084019060208552518091526040840192915b818110610bd2575050500390f35b8251845285945060209384019390920191600101610bc4565b8280fd5b50346101c857806003193601126101c857602060ff60008051602061261c83398151915254166040519015158152f35b50346101c85760203660031901126101c857600435610c42600154821115611fb8565b600a81101580610cd4575b15610c8f5733825260046020528060408320556040519081527f8f946e10e829a370f22a384bbc792a909c82cc1998fd494ae5572b3c4de26c5760203392a280f35b60405162461bcd60e51b815260206004820152601a60248201527f6e6f742076616c69642066656520626173697320706f696e74730000000000006044820152606490fd5b5061012c811115610c4d565b50346101c85760203660031901126101c857600435610cfd61242d565b610d0b600154821115611fb8565b601e8111610d545760078190556006546040519182526001600160a01b0316907f6b9c1abeba6ba37f9deb72f5b7573ab7c05f13e0b4f1b0dfd999b0f06e14cbd690602090a280f35b60405162461bcd60e51b8152602060048201526014602482015273088caccc2ead8e840cccaca40e8dede40d0d2ced60631b6044820152606490fd5b50346101c857806003193601126101c8576020600154604051908152f35b50346101c857806003193601126101c8576020600754604051908152f35b50346101c857806003193601126101c857610de561242d565b60008051602061261c8339815191525460ff811615610e3f5760ff191660008051602061261c833981519152557f5db9ee0a495bf2e6ff9c91a7834c1ba4fdd244a5e8aa4e537bd38aeae4b073aa6020604051338152a180f35b638dfc202b60e01b8252600482fd5b50346101c85760203660031901126101c8576004356001600160a01b03811690819003610ef957610e7d61242d565b8015610ebc57600b80546001600160a01b031916821790557f597dd534f81fa355bfcd38f2974aefa667e81e6938fab3ae43f36fe42e745fd78280a280f35b60405162461bcd60e51b8152602060048201526015602482015274125b9d985b1a5908199959481c9958da5c1a595b9d605a1b6044820152606490fd5b5080fd5b50346101c857806003193601126101c8576020600954604051908152f35b5060403660031901126101c8576004356001600160401b038111610ef95736602382011215610ef9578060040135906001600160401b038211610beb5781810190602482019036821161134957610f70611d8b565b93610f796120a2565b610f816120de565b156119c757602081840312611349576024810135906001600160401b0382116119c357019061014082840312611349576040519261014084018481106001600160401b038211176119af5760405260248301356001600160401b0381116118775760249084010182601f82011215611877578035610ffe81611dec565b9161100c6040519384611db5565b81835260208084019260051b820101908582116119ab5760208101925b82841061187b5750505050845260448301356001600160401b038111611877576024908401019180601f840112156118775782359161106783611dec565b936110756040519586611db5565b83855260208086019460061b82010192831161187357602001925b828410611819575050505060208301526110ac60648201611da1565b60408301526101446110c060848301611da1565b918260608501526110d360a48201611da1565b608085015260c481013560a085015260e481013560c085015261010481013560e085015261012481013561010085015201358015158103611349576101208301526001600160a01b03168015929083156117ea575b50821561179f5760e08201513403611763575b6001600160a01b0381168015159081611758575b5061173a575b5061115f3361228f565b60e08401518695939491939192906001600160a01b03861615158061172d575b6115c6575b50508590336040840152604051906020808301526101808201845190610140604085015281518091526101a084019060206101a08260051b87010193019186905b8282106114f95750505050602085810151848303603f19016060860152805180845292820192910190855b8181106114d4575050508261127d9160018060a01b03604088015116608083015260018060a01b0360608801511660a083015260018060a01b0360808801511660c083015260a087015160e083015260c087015161010083015260e0870151610120830152610100870151610140830152610120870151151561016083015203601f198101845283611db5565b1561135c5760018060a01b036005541660e084015191813b156113585783916112c49160405194858094819363985f61a160e01b8352602060048401526024830190611f6a565b03925af1801561134d57611334575b50506112e260e0925b33612399565b015191604051928352602083015260018060a01b0316907fdd36740e2a012d93061a0d99eaa9107860955de4e90027d3cf465a055026c40760403392a3600160008051602061263c8339815191525580f35b8161133e91611db5565b6113495784386112d3565b8480fd5b6040513d84823e3d90fd5b8380fd5b6113c46113b160018060a09796971b036060870151166113bf6113838a60e08a0151611fab565b6040516323b872dd60e01b602082015233602482015230604482015260648101919091529283906084820190565b03601f198101845283611db5565b6124c8565b606084015160055460e086015160405163095ea7b360e01b81526001600160a01b039283166004820152602481019190915291602091839160449183918891165af180156114c957611492575b506005546001600160a01b031690813b15610beb5782916114509160405194858094819363985f61a160e01b8352602060048401526024830190611f6a565b03925af180156114875761146c575b50906112e260e0926112dc565b8561147e60e09493976112e293611db5565b9591925061145f565b6040513d88823e3d90fd5b6020813d6020116114c1575b816114ab60209383611db5565b81010312610beb57518015158114611411578280fd5b3d915061149e565b6040513d85823e3d90fd5b825180518552602090810151818601528c9750604090940193909201916001016111f0565b919390929495965061019f19878203018252845190611521825160e0835260e0830190611f6a565b918d6020820151938381036020850152602080865192838152019501915b8181106115a75750505061159560019360209360c08594878060a01b036040820151166040840152606081015160608401526080810151608084015260a081015160a084015201519060c0818403910152611f6a565b9601920192018b9695949391926111c5565b82516001600160a01b031686526020958601959092019160010161153f565b9095506115d761ffff871682611f14565b6115e46001548092611f3d565b8097816115f3575b5050611184565b6116036116229261162795611f5d565b60e087015261161c61ffff610100880151921684611f5d565b90611f14565b611f3d565b610100830152801561170a576000805160206125fc833981519152865b6001600160a01b038681168952600360209081526040808b209284168b5291905288208054611674908990611fab565b9055604080513381526001600160a01b038881166020830152831691810191909152606081018890527ece4f934f6c9243787582f181be4702d41dc3a22c7248942bab6b759ca2619c90608090a16001600160a01b03868116808a52600360209081526040808c2094909316808c52938152828b205483519283529082019390935290810191909152606090a1388086816115ec565b60608201516000805160206125fc833981519152906001600160a01b0316611644565b5061ffff8216151561117f565b8061ffff61174a61175293612004565b169033612108565b38611155565b90503314153861114f565b60405162461bcd60e51b8152602060048201526014602482015273125b98dbdc9c9958dd0811551208185b5bdd5b9d60621b6044820152606490fd5b341561113b5760405162461bcd60e51b815260206004820152601d60248201527f455448206e6f74206e656564656420666f7220746f6b656e20737761700000006044820152606490fd5b73a1077a294dde1b09bb078844df40758a5d0f9a279193501480611810575b9138611128565b50341515611809565b60406024858403011261187357604051604081018181106001600160401b0382111761185f57916020916040938452863581528287013583820152815201930192611090565b634e487b7160e01b8b52604160045260248bfd5b8880fd5b8680fd5b83356001600160401b0381116119a75782019060e0600483890301126119a7576040519160e083018381106001600160401b038211176119935760405260208101356001600160401b03811161198f5760209082010189601f8201121561198f57898160206118ec93359101611edd565b835260408101356001600160401b03811161198f5789602061191092840101611e03565b602084015261192160608201611da1565b60408401526080810135606084015260a0810135608084015260c081013560a084015260e08101356001600160401b03811161198f5760209101019088601f8301121561198b5760209261197b8a84868096359101611edd565b60c0820152815201930192611029565b8c80fd5b8d80fd5b634e487b7160e01b8e52604160045260248efd5b8b80fd5b8980fd5b634e487b7160e01b87526041600452602487fd5b8580fd5b60405162461bcd60e51b8152602060048201526012602482015271496e76616c696420726f757465206461746160701b6044820152606490fd5b50346101c85760203660031901126101c8576004356001600160401b038111610ef957611a32903690600401611e03565b611a3a6120a2565b815b8151811015611d1e576001600160a01b03611a578284611e68565b51169033845260036020526040842060018060a01b03831685526020526040842054918215611d145780611b9d5750814710611b58573384526003602052604084208480526020528360408120558380808085335af1611ab5611ead565b5015611b1e577f42e24913771139616a812c16f5cebf6b166c64d2372c1ef418e7e78ff6402d3260606001936000805160206125fc83398151915282604051338152896020820152896040820152a1604051903382528760208301526040820152a15b01611a3c565b60405162461bcd60e51b815260206004820152601260248201527108cc2d2d8cac840e8de40e6cadcc8408aa8960731b6044820152606490fd5b60405162461bcd60e51b815260206004820152601860248201527f496e73756666696369656e74204554482062616c616e636500000000000000006044820152606490fd5b6040516370a0823160e01b8152306004820152602081602481855afa80156114875784918791611ce0575b5010611c9b57338086526003602090815260408088206001600160a01b038516895282528088208890555163a9059cbb60e01b918101919091526024810191909152604480820185905281526001937f42e24913771139616a812c16f5cebf6b166c64d2372c1ef418e7e78ff6402d32929091611c5090611c4a606482611db5565b826124c8565b6000805160206125fc8339815191526060604051338152836020820152896040820152a1604080513381526001600160a01b03929092166020830152810191909152606090a1611b18565b60405162461bcd60e51b815260206004820152601a60248201527f496e73756666696369656e7420746f6b656e2062616c616e63650000000000006044820152606490fd5b9150506020813d8211611d0c575b81611cfb60209383611db5565b810103126119c35783905138611bc8565b3d9150611cee565b5060019150611b18565b82600160008051602061263c8339815191525580f35b905034610ef9576020366003190112610ef95760209160ff906040906001600160a01b03611d60611d70565b168152600a855220541615158152f35b600435906001600160a01b0382168203611d8657565b600080fd5b602435906001600160a01b0382168203611d8657565b35906001600160a01b0382168203611d8657565b90601f801991011681019081106001600160401b03821117611dd657604052565b634e487b7160e01b600052604160045260246000fd5b6001600160401b038111611dd65760051b60200190565b9080601f83011215611d86578135611e1a81611dec565b92611e286040519485611db5565b81845260208085019260051b820101928311611d8657602001905b828210611e505750505090565b60208091611e5d84611da1565b815201910190611e43565b8051821015611e7c5760209160051b010190565b634e487b7160e01b600052603260045260246000fd5b6001600160401b038111611dd657601f01601f191660200190565b3d15611ed8573d90611ebe82611e92565b91611ecc6040519384611db5565b82523d6000602084013e565b606090565b929192611ee982611e92565b91611ef76040519384611db5565b829481845281830111611d86578281602093846000960137010152565b81810292918115918404141715611f2757565b634e487b7160e01b600052601160045260246000fd5b8115611f47570490565b634e487b7160e01b600052601260045260246000fd5b91908203918211611f2757565b919082519283825260005b848110611f96575050826000602080949584010152601f8019910116010190565b80602080928401015182828601015201611f75565b91908201809211611f2757565b15611fbf57565b60405162461bcd60e51b815260206004820152601760248201527f4665652063616e6e6f742065786365656420746f74616c0000000000000000006044820152606490fd5b6001600160a01b031660009081526004602052604090205480156120255790565b5060005490565b6001600160a01b0316801561208c576000805160206125dc83398151915280546001600160a01b0319811683179091556001600160a01b03167f8be0079c531659141344cd1fd0a4f28419497f9722a3daafe3b4186f6b6457e0600080a3565b631e4fbdf760e01b600052600060045260246000fd5b600260008051602061263c83398151915254146120cd57600260008051602061263c83398151915255565b633ee5aeb560e01b60005260046000fd5b60ff60008051602061261c83398151915254166120f757565b63d93c066560e01b60005260046000fd5b6001600160a01b0390911691908215801561227d575b612278576001600160a01b03908116600081815260086020526040902080549193909290911615801590612258575b612252577fab866771571f6739ca4d6b94711c3bb9ee4e3e16010dde817e8bbcf83c66a27e9160409161012c61ffff8216111561224c575061012c905b80546affffffffffffffffffffff60a01b1987166001600160f81b0319909116174260a01b67ffffffffffffffff60a01b161760e083901b61ffff60e01b1617600360f01b17905560008481526002602052829020546001600160a01b031615612201575b61ffff825191428352166020820152a3565b83600052600260205281600020856001600160601b0360a01b82541617905584847f5f1ca2fcc108b751843a763e60d2201f593516109d7dbb1b700468f2d4190bb7600080a36121ef565b9061218a565b50505050565b506000838152600260205260409020546001600160a01b0316151561214d565b505050565b506001600160a01b038116831461211e565b6001600160a01b031660008181526008602052604090819020905190608082016001600160401b03811183821017611dd6576040525460ff60018060a01b038216918284526001600160401b038160a01c16602085015261ffff8160e01c16604085015260f01c16606083015261237d57506000908152600260205260409020546001600160a01b03168061236057506006546001600160a01b03168061233c5750600090600090600090565b600754909190601e81116123575761ffff16915b9190600090565b50601e91612350565b9061ffff61236d83612004565b16601e8110156123575790600090565b9190506123898261252f565b92516001600160a01b0316929091565b901561242a576001600160a01b03166000818152600860205260409020805460f01c60ff16806123c857505050565b815460ff60f01b19811660001990920160f090811b60ff60f01b1692909217928390556040519290911c60ff1682526001600160a01b031691907fedc23f9770cd130ea9d1f4b225a7f2554ab99c36557ddde5317bb8df1981293f90602090a3565b50565b6000805160206125dc833981519152546001600160a01b0316330361244e57565b63118cdaa760e01b6000523360045260246000fd5b8147106124af576000918291829182916001600160a01b03165af1612486611ead565b901561248f5750565b80511561249e57805190602001fd5b63d6bda27560e01b60005260046000fd5b504763cf47918160e01b60005260045260245260446000fd5b906000602091828151910182855af115612523576000513d61251a57506001600160a01b0381163b155b6124f95750565b635274afe760e01b60009081526001600160a01b0391909116600452602490fd5b600114156124f2565b6040513d6000823e3d90fd5b80516001600160a01b03169081156125a35761ffff9160ff60608301511661257e575051612565906001600160a01b0316612004565b16601e811015612576575b90600090565b50601e612570565b6125889150612004565b1661012c81101561259a575b90600190565b5061012c612594565b5050600090600090565b60ff60008051602061265c8339815191525460401c16156125ca57565b631afcd79f60e31b60005260046000fdfe9016d09d72d40fdae2fd8ceac6b6234c7706214fd39c1cd1e609a0528c199300b33d51d6ef09d09bda3ffd15eba49d63a569803b711c3f0d6b8ceb6834f7f557cd5ed15c6e187e77e9aee88184c21f4f2182ab5827cb3b7e07fbedcd63f033009b779b17422d0df92223018b32b4d1fa46e071723d6817e2486d003becc55f00f0c57e16840df040f15088dc2f81fe391c3923bec73e23a9662efc9c229c6a00a264697066735822122071a2c3230fbe72c3a63f349ef5a71728d9a5b228b6da8e722e8996954fa1e60364736f6c634300081c0033",
  "linkReferences": {},
  "deployedLinkReferences": {}
}